{
	"data": {
		"bytecode": {
			"linkReferences": {},
			"object": "60806040525f600160146101000a81548160ff021916908315150217905550348015610029575f80fd5b506040516121f73803806121f7833981810160405281019061004b919061012e565b335f806101000a81548173ffffffffffffffffffffffffffffffffffffffff021916908373ffffffffffffffffffffffffffffffffffffffff1602179055508060015f6101000a81548173ffffffffffffffffffffffffffffffffffffffff021916908373ffffffffffffffffffffffffffffffffffffffff16021790555050610159565b5f80fd5b5f73ffffffffffffffffffffffffffffffffffffffff82169050919050565b5f6100fd826100d4565b9050919050565b61010d816100f3565b8114610117575f80fd5b50565b5f8151905061012881610104565b92915050565b5f60208284031215610143576101426100d0565b5b5f6101508482850161011a565b91505092915050565b612091806101665f395ff3fe608060405234801561000f575f80fd5b50600436106100a7575f3560e01c8063644c990a1161006f578063644c990a1461013d57806374a378e0146101595780638e19937414610175578063a55c87fd14610193578063b67be4e9146101b1578063ef091333146101cf576100a7565b806302b301e9146100ab578063162cefc3146100c95780633321c7db146100e55780634064911c146101015780634fe43c901461011f575b5f80fd5b6100b36101eb565b6040516100c09190610ffe565b60405180910390f35b6100e360048036038101906100de91906111c4565b610277565b005b6100ff60048036038101906100fa9190611285565b6104c4565b005b610109610726565b6040516101169190611357565b60405180910390f35b61012761074b565b6040516101349190610ffe565b60405180910390f35b61015760048036038101906101529190611285565b6107d7565b005b610173600480360381019061016e91906111c4565b6109e3565b005b61017d610c2c565b60405161018a9190611357565b60405180910390f35b61019b610c4f565b6040516101a8919061138a565b60405180910390f35b6101b9610c62565b6040516101c69190610ffe565b60405180910390f35b6101e960048036038101906101e491906111c4565b610cee565b005b600380546101f8906113d0565b80601f0160208091040260200160405190810160405280929190818152602001828054610224906113d0565b801561026f5780601f106102465761010080835404028352916020019161026f565b820191905f5260205f20905b81548152906001019060200180831161025257829003601f168201915b505050505081565b60015f9054906101000a900473ffffffffffffffffffffffffffffffffffffffff1673ffffffffffffffffffffffffffffffffffffffff163373ffffffffffffffffffffffffffffffffffffffff1614610306576040517f08c379a00000000000000000000000000000000000000000000000000000000081526004016102fd90611470565b60405180910390fd5b60011515600160149054906101000a900460ff1615151461035c576040517f08c379a0000000000000000000000000000000000000000000000000000000008152600401610353906114d8565b60405180910390fd5b5f61036985858585610f37565b905060405160200161037a9061154a565b60405160208183030381529060405280519060200120876040516020016103a1919061158e565b60405160208183030381529060405280519060200120148015610410575060015f9054906101000a900473ffffffffffffffffffffffffffffffffffffffff1673ffffffffffffffffffffffffffffffffffffffff168173ffffffffffffffffffffffffffffffffffffffff16145b1561046a573373ffffffffffffffffffffffffffffffffffffffff167fcdc63e0c82a5f5805d50f7db15486fa6251a48fa5457349f6e4407781233a69b874260405161045d929190611678565b60405180910390a26104bb565b3373ffffffffffffffffffffffffffffffffffffffff167f4c68d6c2b1cf0b5641e6494df35a43397c5b6b96f97d01a4eed281bae1ca5f8c87426040516104b292919061174f565b60405180910390a25b50505050505050565b60015f9054906101000a900473ffffffffffffffffffffffffffffffffffffffff1673ffffffffffffffffffffffffffffffffffffffff163373ffffffffffffffffffffffffffffffffffffffff1614610553576040517f08c379a000000000000000000000000000000000000000000000000000000000815260040161054a90611470565b60405180910390fd5b60011515600160149054906101000a900460ff161515146105a9576040517f08c379a00000000000000000000000000000000000000000000000000000000081526004016105a0906114d8565b60405180910390fd5b5f6105b685858585610f37565b90506040516020016105c7906117da565b60405160208183030381529060405280519060200120866040516020016105ee919061158e565b6040516020818303038152906040528051906020012014801561065d575060015f9054906101000a900473ffffffffffffffffffffffffffffffffffffffff1673ffffffffffffffffffffffffffffffffffffffff168173ffffffffffffffffffffffffffffffffffffffff16145b156106cf575f600160146101000a81548160ff0219169083151502179055503373ffffffffffffffffffffffffffffffffffffffff167f5e891764dd1799052b9b6ea4a170ccc96522d523ddb1326512a705ce058158f2426040516106c2919061185e565b60405180910390a261071e565b3373ffffffffffffffffffffffffffffffffffffffff167f318cbf99389f11034e0c03354a3175f9cbc56c6916f655347180e28990918ad5426040516107159190611920565b60405180910390a25b505050505050565b60015f9054906101000a900473ffffffffffffffffffffffffffffffffffffffff1681565b60048054610758906113d0565b80601f0160208091040260200160405190810160405280929190818152602001828054610784906113d0565b80156107cf5780601f106107a6576101008083540402835291602001916107cf565b820191905f5260205f20905b8154815290600101906020018083116107b257829003601f168201915b505050505081565b60015f9054906101000a900473ffffffffffffffffffffffffffffffffffffffff1673ffffffffffffffffffffffffffffffffffffffff163373ffffffffffffffffffffffffffffffffffffffff1614610866576040517f08c379a000000000000000000000000000000000000000000000000000000000815260040161085d90611470565b60405180910390fd5b5f61087385858585610f37565b905060405160200161088490611996565b60405160208183030381529060405280519060200120866040516020016108ab919061158e565b6040516020818303038152906040528051906020012014801561091a575060015f9054906101000a900473ffffffffffffffffffffffffffffffffffffffff1673ffffffffffffffffffffffffffffffffffffffff168173ffffffffffffffffffffffffffffffffffffffff16145b1561098c5760018060146101000a81548160ff0219169083151502179055503373ffffffffffffffffffffffffffffffffffffffff167fe04a00ae09fe9dd55704ff5362bc53a35e0e9d7866a77b17bd4a986af193e1184260405161097f9190611a1a565b60405180910390a26109db565b3373ffffffffffffffffffffffffffffffffffffffff167fcc6a2cda280d7ad4a74b247795415039bca72b21bb87bfc2a6ccd5383030ccb3426040516109d29190611adc565b60405180910390a25b505050505050565b5f8054906101000a900473ffffffffffffffffffffffffffffffffffffffff1673ffffffffffffffffffffffffffffffffffffffff163373ffffffffffffffffffffffffffffffffffffffff1614610a70576040517f08c379a0000000000000000000000000000000000000000000000000000000008152600401610a6790611b78565b60405180910390fd5b60011515600160149054906101000a900460ff16151514610ac6576040517f08c379a0000000000000000000000000000000000000000000000000000000008152600401610abd906114d8565b60405180910390fd5b5f610ad385858585610f37565b9050604051602001610ae490611be0565b6040516020818303038152906040528051906020012087604051602001610b0b919061158e565b60405160208183030381529060405280519060200120148015610b7857505f8054906101000a900473ffffffffffffffffffffffffffffffffffffffff1673ffffffffffffffffffffffffffffffffffffffff168173ffffffffffffffffffffffffffffffffffffffff16145b15610bd2573373ffffffffffffffffffffffffffffffffffffffff167fc8ecb0e7c39bcdc3e9147c665b9c74df17a85aa88e723c9290b8405bbb19eb318742604051610bc5929190611cb0565b60405180910390a2610c23565b3373ffffffffffffffffffffffffffffffffffffffff167f474d541a26bd35a8ecfd0de88be921a3f5439d1f3c22be5bdae62a6806be75b88742604051610c1a929190611d87565b60405180910390a25b50505050505050565b5f8054906101000a900473ffffffffffffffffffffffffffffffffffffffff1681565b600160149054906101000a900460ff1681565b60028054610c6f906113d0565b80601f0160208091040260200160405190810160405280929190818152602001828054610c9b906113d0565b8015610ce65780601f10610cbd57610100808354040283529160200191610ce6565b820191905f5260205f20905b815481529060010190602001808311610cc957829003601f168201915b505050505081565b5f8054906101000a900473ffffffffffffffffffffffffffffffffffffffff1673ffffffffffffffffffffffffffffffffffffffff163373ffffffffffffffffffffffffffffffffffffffff1614610d7b576040517f08c379a0000000000000000000000000000000000000000000000000000000008152600401610d7290611b78565b60405180910390fd5b60011515600160149054906101000a900460ff16151514610dd1576040517f08c379a0000000000000000000000000000000000000000000000000000000008152600401610dc8906114d8565b60405180910390fd5b5f610dde85858585610f37565b9050604051602001610def90611e12565b6040516020818303038152906040528051906020012087604051602001610e16919061158e565b60405160208183030381529060405280519060200120148015610e8357505f8054906101000a900473ffffffffffffffffffffffffffffffffffffffff1673ffffffffffffffffffffffffffffffffffffffff168173ffffffffffffffffffffffffffffffffffffffff16145b15610edd573373ffffffffffffffffffffffffffffffffffffffff167f78ffe431ab1b58376e244b8074c9872be0bb8d5e180d00d6b9dbeb870da6966b8742604051610ed0929190611ee2565b60405180910390a2610f2e565b3373ffffffffffffffffffffffffffffffffffffffff167fad0e198af6759091103dd141a4d4add5ab1954936c276a9a62d3ff13e17c8e418742604051610f25929190611fb9565b60405180910390a25b50505050505050565b5f6001858585856040515f8152602001604052604051610f5a9493929190612018565b6020604051602081039080840390855afa158015610f7a573d5f803e3d5ffd5b505050602060405103519050949350505050565b5f81519050919050565b5f82825260208201905092915050565b8281835e5f83830152505050565b5f601f19601f8301169050919050565b5f610fd082610f8e565b610fda8185610f98565b9350610fea818560208601610fa8565b610ff381610fb6565b840191505092915050565b5f6020820190508181035f8301526110168184610fc6565b905092915050565b5f604051905090565b5f80fd5b5f80fd5b5f80fd5b5f80fd5b7f4e487b71000000000000000000000000000000000000000000000000000000005f52604160045260245ffd5b61106d82610fb6565b810181811067ffffffffffffffff8211171561108c5761108b611037565b5b80604052505050565b5f61109e61101e565b90506110aa8282611064565b919050565b5f67ffffffffffffffff8211156110c9576110c8611037565b5b6110d282610fb6565b9050602081019050919050565b828183375f83830152505050565b5f6110ff6110fa846110af565b611095565b90508281526020810184848401111561111b5761111a611033565b5b6111268482856110df565b509392505050565b5f82601f8301126111425761114161102f565b5b81356111528482602086016110ed565b91505092915050565b5f819050919050565b61116d8161115b565b8114611177575f80fd5b50565b5f8135905061118881611164565b92915050565b5f60ff82169050919050565b6111a38161118e565b81146111ad575f80fd5b50565b5f813590506111be8161119a565b92915050565b5f805f805f8060c087890312156111de576111dd611027565b5b5f87013567ffffffffffffffff8111156111fb576111fa61102b565b5b61120789828a0161112e565b965050602087013567ffffffffffffffff8111156112285761122761102b565b5b61123489828a0161112e565b955050604061124589828a0161117a565b945050606061125689828a016111b0565b935050608061126789828a0161117a565b92505060a061127889828a0161117a565b9150509295509295509295565b5f805f805f60a0868803121561129e5761129d611027565b5b5f86013567ffffffffffffffff8111156112bb576112ba61102b565b5b6112c78882890161112e565b95505060206112d88882890161117a565b94505060406112e9888289016111b0565b93505060606112fa8882890161117a565b925050608061130b8882890161117a565b9150509295509295909350565b5f73ffffffffffffffffffffffffffffffffffffffff82169050919050565b5f61134182611318565b9050919050565b61135181611337565b82525050565b5f60208201905061136a5f830184611348565b92915050565b5f8115159050919050565b61138481611370565b82525050565b5f60208201905061139d5f83018461137b565b92915050565b7f4e487b71000000000000000000000000000000000000000000000000000000005f52602260045260245ffd5b5f60028204905060018216806113e757607f821691505b6020821081036113fa576113f96113a3565b5b50919050565b7f4f6e6c7920746865206e6574776f726b206c65616465722070434e2063616e205f8201527f646f207468617420616374696f6e000000000000000000000000000000000000602082015250565b5f61145a602e83610f98565b915061146582611400565b604082019050919050565b5f6020820190508181035f8301526114878161144e565b9050919050565b7f5468652070726f746f636f6c206d7573742062652061637469766500000000005f82015250565b5f6114c2601b83610f98565b91506114cd8261148e565b602082019050919050565b5f6020820190508181035f8301526114ef816114b6565b9050919050565b5f81905092915050565b7f6d65737361676541636b6e6f776c6564676500000000000000000000000000005f82015250565b5f6115346012836114f6565b915061153f82611500565b601282019050919050565b5f61155482611528565b9150819050919050565b5f61156882610f8e565b61157281856114f6565b9350611582818560208601610fa8565b80840191505092915050565b5f611599828461155e565b915081905092915050565b7f41636b6e6f776c656467654d657373616765436f6d6d6974746564413a2054685f8201527f65207369676e6572206f662074686973207472616e73616374696f6e2072657160208201527f7565737473207472616e736d697474696e67207468652061747461636865642060408201527f6d65737361676520746f2074686520726563657069656e740000000000000000606082015250565b5f61164a607883610f98565b9150611655826115a4565b608082019050919050565b5f819050919050565b61167281611660565b82525050565b5f6060820190508181035f83015261168f8161163e565b905081810360208301526116a38185610fc6565b90506116b26040830184611669565b9392505050565b7f41636b6e6f776c656467654d6573736167654572726f72413a205468657265205f8201527f77617320616e206572726f72207769746820746865206d65737361676520726560208201527f71756573742070726f7669646564000000000000000000000000000000000000604082015250565b5f611739604e83610f98565b9150611744826116b9565b606082019050919050565b5f6060820190508181035f8301526117668161172d565b9050818103602083015261177a8185610fc6565b90506117896040830184611669565b9392505050565b7f6d65737361676546696e697368000000000000000000000000000000000000005f82015250565b5f6117c4600d836114f6565b91506117cf82611790565b600d82019050919050565b5f6117e4826117b8565b9150819050919050565b7f50726f746f636f6c46696e6973686564413a2050726f746f636f6c2046696e695f8201527f73686564205375636365737366756c6c79000000000000000000000000000000602082015250565b5f611848603183610f98565b9150611853826117ee565b604082019050919050565b5f6040820190508181035f8301526118758161183c565b90506118846020830184611669565b92915050565b7f50726f746f636f6c46696e69736865644572726f72413a2054686572652077615f8201527f7320616e206572726f722077697468207468652066696e6973682c20636f756c60208201527f646e27742076616c6964617465207369676e6174757265000000000000000000604082015250565b5f61190a605783610f98565b91506119158261188a565b606082019050919050565b5f6040820190508181035f830152611937816118fe565b90506119466020830184611669565b92915050565b7f6d657373616765537461727400000000000000000000000000000000000000005f82015250565b5f611980600c836114f6565b915061198b8261194c565b600c82019050919050565b5f6119a082611974565b9150819050919050565b7f50726f746f636f6c53746172746564413a2050726f746f636f6c2053746172745f8201527f6564205375636365737366756c6c790000000000000000000000000000000000602082015250565b5f611a04602f83610f98565b9150611a0f826119aa565b604082019050919050565b5f6040820190508181035f830152611a31816119f8565b9050611a406020830184611669565b92915050565b7f50726f746f636f6c53746172744572726f72413a2054686572652077617320615f8201527f6e206572726f722077697468207468652073746172742c20636f756c646e277460208201527f2076616c6964617465207369676e617475726500000000000000000000000000604082015250565b5f611ac6605383610f98565b9150611ad182611a46565b606082019050919050565b5f6040820190508181035f830152611af381611aba565b9050611b026020830184611669565b92915050565b7f4f6e6c792074686520636f6e74726163742063726561746f7220412063616e205f8201527f646f207468617420616374696f6e000000000000000000000000000000000000602082015250565b5f611b62602e83610f98565b9150611b6d82611b08565b604082019050919050565b5f6020820190508181035f830152611b8f81611b56565b9050919050565b7f6d657373616765476574496e666f0000000000000000000000000000000000005f82015250565b5f611bca600e836114f6565b9150611bd582611b96565b600e82019050919050565b5f611bea82611bbe565b9150819050919050565b7f5472616e736665724d657373616765436f6d6d6974746564413a2054686520735f8201527f69676e6572206f662074686973207472616e73616374696f6e2072657175657360208201527f7473207472616e736d697474696e6720746865206174746163686564206d657360408201527f7361676520746f2074686520726563657069656e740000000000000000000000606082015250565b5f611c9a607583610f98565b9150611ca582611bf4565b608082019050919050565b5f6060820190508181035f830152611cc781611c8e565b90508181036020830152611cdb8185610fc6565b9050611cea6040830184611669565b9392505050565b7f5472616e736665724d6573736167654572726f72413a205468657265207761735f8201527f20616e206572726f72207769746820746865206d65737361676520726571756560208201527f73742070726f7669646564000000000000000000000000000000000000000000604082015250565b5f611d71604b83610f98565b9150611d7c82611cf1565b606082019050919050565b5f6060820190508181035f830152611d9e81611d65565b90508181036020830152611db28185610fc6565b9050611dc16040830184611669565b9392505050565b7f6d657373616765456e644d6573736167650000000000000000000000000000005f82015250565b5f611dfc6011836114f6565b9150611e0782611dc8565b601182019050919050565b5f611e1c82611df0565b9150819050919050565b7f456e644d657373616765436f6d6d6974746564413a20546865207369676e65725f8201527f206f662074686973207472616e73616374696f6e20726571756573747320747260208201527f616e736d697474696e6720746865206174746163686564206d6573736167652060408201527f746f2074686520726563657069656e7400000000000000000000000000000000606082015250565b5f611ecc607083610f98565b9150611ed782611e26565b608082019050919050565b5f6060820190508181035f830152611ef981611ec0565b90508181036020830152611f0d8185610fc6565b9050611f1c6040830184611669565b9392505050565b7f456e644d6573736167654572726f72413a2054686572652077617320616e20655f8201527f72726f72207769746820746865206d657373616765207265717565737420707260208201527f6f76696465640000000000000000000000000000000000000000000000000000604082015250565b5f611fa3604683610f98565b9150611fae82611f23565b606082019050919050565b5f6060820190508181035f830152611fd081611f97565b90508181036020830152611fe48185610fc6565b9050611ff36040830184611669565b9392505050565b6120038161115b565b82525050565b6120128161118e565b82525050565b5f60808201905061202b5f830187611ffa565b6120386020830186612009565b6120456040830185611ffa565b6120526060830184611ffa565b9594505050505056fea264697066735822122036a08f197b0992bd915e31462733924020d3dab273d27a698d4296d8a56cce1464736f6c634300081a0033",
			"opcodes": "PUSH1 0x80 PUSH1 0x40 MSTORE PUSH0 PUSH1 0x1 PUSH1 0x14 PUSH2 0x100 EXP DUP2 SLOAD DUP2 PUSH1 0xFF MUL NOT AND SWAP1 DUP4 ISZERO ISZERO MUL OR SWAP1 SSTORE POP CALLVALUE DUP1 ISZERO PUSH2 0x29 JUMPI PUSH0 DUP1 REVERT JUMPDEST POP PUSH1 0x40 MLOAD PUSH2 0x21F7 CODESIZE SUB DUP1 PUSH2 0x21F7 DUP4 CODECOPY DUP2 DUP2 ADD PUSH1 0x40 MSTORE DUP2 ADD SWAP1 PUSH2 0x4B SWAP2 SWAP1 PUSH2 0x12E JUMP JUMPDEST CALLER PUSH0 DUP1 PUSH2 0x100 EXP DUP2 SLOAD DUP2 PUSH20 0xFFFFFFFFFFFFFFFFFFFFFFFFFFFFFFFFFFFFFFFF MUL NOT AND SWAP1 DUP4 PUSH20 0xFFFFFFFFFFFFFFFFFFFFFFFFFFFFFFFFFFFFFFFF AND MUL OR SWAP1 SSTORE POP DUP1 PUSH1 0x1 PUSH0 PUSH2 0x100 EXP DUP2 SLOAD DUP2 PUSH20 0xFFFFFFFFFFFFFFFFFFFFFFFFFFFFFFFFFFFFFFFF MUL NOT AND SWAP1 DUP4 PUSH20 0xFFFFFFFFFFFFFFFFFFFFFFFFFFFFFFFFFFFFFFFF AND MUL OR SWAP1 SSTORE POP POP PUSH2 0x159 JUMP JUMPDEST PUSH0 DUP1 REVERT JUMPDEST PUSH0 PUSH20 0xFFFFFFFFFFFFFFFFFFFFFFFFFFFFFFFFFFFFFFFF DUP3 AND SWAP1 POP SWAP2 SWAP1 POP JUMP JUMPDEST PUSH0 PUSH2 0xFD DUP3 PUSH2 0xD4 JUMP JUMPDEST SWAP1 POP SWAP2 SWAP1 POP JUMP JUMPDEST PUSH2 0x10D DUP2 PUSH2 0xF3 JUMP JUMPDEST DUP2 EQ PUSH2 0x117 JUMPI PUSH0 DUP1 REVERT JUMPDEST POP JUMP JUMPDEST PUSH0 DUP2 MLOAD SWAP1 POP PUSH2 0x128 DUP2 PUSH2 0x104 JUMP JUMPDEST SWAP3 SWAP2 POP POP JUMP JUMPDEST PUSH0 PUSH1 0x20 DUP3 DUP5 SUB SLT ISZERO PUSH2 0x143 JUMPI PUSH2 0x142 PUSH2 0xD0 JUMP JUMPDEST JUMPDEST PUSH0 PUSH2 0x150 DUP5 DUP3 DUP6 ADD PUSH2 0x11A JUMP JUMPDEST SWAP2 POP POP SWAP3 SWAP2 POP POP JUMP JUMPDEST PUSH2 0x2091 DUP1 PUSH2 0x166 PUSH0 CODECOPY PUSH0 RETURN INVALID PUSH1 0x80 PUSH1 0x40 MSTORE CALLVALUE DUP1 ISZERO PUSH2 0xF JUMPI PUSH0 DUP1 REVERT JUMPDEST POP PUSH1 0x4 CALLDATASIZE LT PUSH2 0xA7 JUMPI PUSH0 CALLDATALOAD PUSH1 0xE0 SHR DUP1 PUSH4 0x644C990A GT PUSH2 0x6F JUMPI DUP1 PUSH4 0x644C990A EQ PUSH2 0x13D JUMPI DUP1 PUSH4 0x74A378E0 EQ PUSH2 0x159 JUMPI DUP1 PUSH4 0x8E199374 EQ PUSH2 0x175 JUMPI DUP1 PUSH4 0xA55C87FD EQ PUSH2 0x193 JUMPI DUP1 PUSH4 0xB67BE4E9 EQ PUSH2 0x1B1 JUMPI DUP1 PUSH4 0xEF091333 EQ PUSH2 0x1CF JUMPI PUSH2 0xA7 JUMP JUMPDEST DUP1 PUSH4 0x2B301E9 EQ PUSH2 0xAB JUMPI DUP1 PUSH4 0x162CEFC3 EQ PUSH2 0xC9 JUMPI DUP1 PUSH4 0x3321C7DB EQ PUSH2 0xE5 JUMPI DUP1 PUSH4 0x4064911C EQ PUSH2 0x101 JUMPI DUP1 PUSH4 0x4FE43C90 EQ PUSH2 0x11F JUMPI JUMPDEST PUSH0 DUP1 REVERT JUMPDEST PUSH2 0xB3 PUSH2 0x1EB JUMP JUMPDEST PUSH1 0x40 MLOAD PUSH2 0xC0 SWAP2 SWAP1 PUSH2 0xFFE JUMP JUMPDEST PUSH1 0x40 MLOAD DUP1 SWAP2 SUB SWAP1 RETURN JUMPDEST PUSH2 0xE3 PUSH1 0x4 DUP1 CALLDATASIZE SUB DUP2 ADD SWAP1 PUSH2 0xDE SWAP2 SWAP1 PUSH2 0x11C4 JUMP JUMPDEST PUSH2 0x277 JUMP JUMPDEST STOP JUMPDEST PUSH2 0xFF PUSH1 0x4 DUP1 CALLDATASIZE SUB DUP2 ADD SWAP1 PUSH2 0xFA SWAP2 SWAP1 PUSH2 0x1285 JUMP JUMPDEST PUSH2 0x4C4 JUMP JUMPDEST STOP JUMPDEST PUSH2 0x109 PUSH2 0x726 JUMP JUMPDEST PUSH1 0x40 MLOAD PUSH2 0x116 SWAP2 SWAP1 PUSH2 0x1357 JUMP JUMPDEST PUSH1 0x40 MLOAD DUP1 SWAP2 SUB SWAP1 RETURN JUMPDEST PUSH2 0x127 PUSH2 0x74B JUMP JUMPDEST PUSH1 0x40 MLOAD PUSH2 0x134 SWAP2 SWAP1 PUSH2 0xFFE JUMP JUMPDEST PUSH1 0x40 MLOAD DUP1 SWAP2 SUB SWAP1 RETURN JUMPDEST PUSH2 0x157 PUSH1 0x4 DUP1 CALLDATASIZE SUB DUP2 ADD SWAP1 PUSH2 0x152 SWAP2 SWAP1 PUSH2 0x1285 JUMP JUMPDEST PUSH2 0x7D7 JUMP JUMPDEST STOP JUMPDEST PUSH2 0x173 PUSH1 0x4 DUP1 CALLDATASIZE SUB DUP2 ADD SWAP1 PUSH2 0x16E SWAP2 SWAP1 PUSH2 0x11C4 JUMP JUMPDEST PUSH2 0x9E3 JUMP JUMPDEST STOP JUMPDEST PUSH2 0x17D PUSH2 0xC2C JUMP JUMPDEST PUSH1 0x40 MLOAD PUSH2 0x18A SWAP2 SWAP1 PUSH2 0x1357 JUMP JUMPDEST PUSH1 0x40 MLOAD DUP1 SWAP2 SUB SWAP1 RETURN JUMPDEST PUSH2 0x19B PUSH2 0xC4F JUMP JUMPDEST PUSH1 0x40 MLOAD PUSH2 0x1A8 SWAP2 SWAP1 PUSH2 0x138A JUMP JUMPDEST PUSH1 0x40 MLOAD DUP1 SWAP2 SUB SWAP1 RETURN JUMPDEST PUSH2 0x1B9 PUSH2 0xC62 JUMP JUMPDEST PUSH1 0x40 MLOAD PUSH2 0x1C6 SWAP2 SWAP1 PUSH2 0xFFE JUMP JUMPDEST PUSH1 0x40 MLOAD DUP1 SWAP2 SUB SWAP1 RETURN JUMPDEST PUSH2 0x1E9 PUSH1 0x4 DUP1 CALLDATASIZE SUB DUP2 ADD SWAP1 PUSH2 0x1E4 SWAP2 SWAP1 PUSH2 0x11C4 JUMP JUMPDEST PUSH2 0xCEE JUMP JUMPDEST STOP JUMPDEST PUSH1 0x3 DUP1 SLOAD PUSH2 0x1F8 SWAP1 PUSH2 0x13D0 JUMP JUMPDEST DUP1 PUSH1 0x1F ADD PUSH1 0x20 DUP1 SWAP2 DIV MUL PUSH1 0x20 ADD PUSH1 0x40 MLOAD SWAP1 DUP2 ADD PUSH1 0x40 MSTORE DUP1 SWAP3 SWAP2 SWAP1 DUP2 DUP2 MSTORE PUSH1 0x20 ADD DUP3 DUP1 SLOAD PUSH2 0x224 SWAP1 PUSH2 0x13D0 JUMP JUMPDEST DUP1 ISZERO PUSH2 0x26F JUMPI DUP1 PUSH1 0x1F LT PUSH2 0x246 JUMPI PUSH2 0x100 DUP1 DUP4 SLOAD DIV MUL DUP4 MSTORE SWAP2 PUSH1 0x20 ADD SWAP2 PUSH2 0x26F JUMP JUMPDEST DUP3 ADD SWAP2 SWAP1 PUSH0 MSTORE PUSH1 0x20 PUSH0 KECCAK256 SWAP1 JUMPDEST DUP2 SLOAD DUP2 MSTORE SWAP1 PUSH1 0x1 ADD SWAP1 PUSH1 0x20 ADD DUP1 DUP4 GT PUSH2 0x252 JUMPI DUP3 SWAP1 SUB PUSH1 0x1F AND DUP3 ADD SWAP2 JUMPDEST POP POP POP POP POP DUP2 JUMP JUMPDEST PUSH1 0x1 PUSH0 SWAP1 SLOAD SWAP1 PUSH2 0x100 EXP SWAP1 DIV PUSH20 0xFFFFFFFFFFFFFFFFFFFFFFFFFFFFFFFFFFFFFFFF AND PUSH20 0xFFFFFFFFFFFFFFFFFFFFFFFFFFFFFFFFFFFFFFFF AND CALLER PUSH20 0xFFFFFFFFFFFFFFFFFFFFFFFFFFFFFFFFFFFFFFFF AND EQ PUSH2 0x306 JUMPI PUSH1 0x40 MLOAD PUSH32 0x8C379A000000000000000000000000000000000000000000000000000000000 DUP2 MSTORE PUSH1 0x4 ADD PUSH2 0x2FD SWAP1 PUSH2 0x1470 JUMP JUMPDEST PUSH1 0x40 MLOAD DUP1 SWAP2 SUB SWAP1 REVERT JUMPDEST PUSH1 0x1 ISZERO ISZERO PUSH1 0x1 PUSH1 0x14 SWAP1 SLOAD SWAP1 PUSH2 0x100 EXP SWAP1 DIV PUSH1 0xFF AND ISZERO ISZERO EQ PUSH2 0x35C JUMPI PUSH1 0x40 MLOAD PUSH32 0x8C379A000000000000000000000000000000000000000000000000000000000 DUP2 MSTORE PUSH1 0x4 ADD PUSH2 0x353 SWAP1 PUSH2 0x14D8 JUMP JUMPDEST PUSH1 0x40 MLOAD DUP1 SWAP2 SUB SWAP1 REVERT JUMPDEST PUSH0 PUSH2 0x369 DUP6 DUP6 DUP6 DUP6 PUSH2 0xF37 JUMP JUMPDEST SWAP1 POP PUSH1 0x40 MLOAD PUSH1 0x20 ADD PUSH2 0x37A SWAP1 PUSH2 0x154A JUMP JUMPDEST PUSH1 0x40 MLOAD PUSH1 0x20 DUP2 DUP4 SUB SUB DUP2 MSTORE SWAP1 PUSH1 0x40 MSTORE DUP1 MLOAD SWAP1 PUSH1 0x20 ADD KECCAK256 DUP8 PUSH1 0x40 MLOAD PUSH1 0x20 ADD PUSH2 0x3A1 SWAP2 SWAP1 PUSH2 0x158E JUMP JUMPDEST PUSH1 0x40 MLOAD PUSH1 0x20 DUP2 DUP4 SUB SUB DUP2 MSTORE SWAP1 PUSH1 0x40 MSTORE DUP1 MLOAD SWAP1 PUSH1 0x20 ADD KECCAK256 EQ DUP1 ISZERO PUSH2 0x410 JUMPI POP PUSH1 0x1 PUSH0 SWAP1 SLOAD SWAP1 PUSH2 0x100 EXP SWAP1 DIV PUSH20 0xFFFFFFFFFFFFFFFFFFFFFFFFFFFFFFFFFFFFFFFF AND PUSH20 0xFFFFFFFFFFFFFFFFFFFFFFFFFFFFFFFFFFFFFFFF AND DUP2 PUSH20 0xFFFFFFFFFFFFFFFFFFFFFFFFFFFFFFFFFFFFFFFF AND EQ JUMPDEST ISZERO PUSH2 0x46A JUMPI CALLER PUSH20 0xFFFFFFFFFFFFFFFFFFFFFFFFFFFFFFFFFFFFFFFF AND PUSH32 0xCDC63E0C82A5F5805D50F7DB15486FA6251A48FA5457349F6E4407781233A69B DUP8 TIMESTAMP PUSH1 0x40 MLOAD PUSH2 0x45D SWAP3 SWAP2 SWAP1 PUSH2 0x1678 JUMP JUMPDEST PUSH1 0x40 MLOAD DUP1 SWAP2 SUB SWAP1 LOG2 PUSH2 0x4BB JUMP JUMPDEST CALLER PUSH20 0xFFFFFFFFFFFFFFFFFFFFFFFFFFFFFFFFFFFFFFFF AND PUSH32 0x4C68D6C2B1CF0B5641E6494DF35A43397C5B6B96F97D01A4EED281BAE1CA5F8C DUP8 TIMESTAMP PUSH1 0x40 MLOAD PUSH2 0x4B2 SWAP3 SWAP2 SWAP1 PUSH2 0x174F JUMP JUMPDEST PUSH1 0x40 MLOAD DUP1 SWAP2 SUB SWAP1 LOG2 JUMPDEST POP POP POP POP POP POP POP JUMP JUMPDEST PUSH1 0x1 PUSH0 SWAP1 SLOAD SWAP1 PUSH2 0x100 EXP SWAP1 DIV PUSH20 0xFFFFFFFFFFFFFFFFFFFFFFFFFFFFFFFFFFFFFFFF AND PUSH20 0xFFFFFFFFFFFFFFFFFFFFFFFFFFFFFFFFFFFFFFFF AND CALLER PUSH20 0xFFFFFFFFFFFFFFFFFFFFFFFFFFFFFFFFFFFFFFFF AND EQ PUSH2 0x553 JUMPI PUSH1 0x40 MLOAD PUSH32 0x8C379A000000000000000000000000000000000000000000000000000000000 DUP2 MSTORE PUSH1 0x4 ADD PUSH2 0x54A SWAP1 PUSH2 0x1470 JUMP JUMPDEST PUSH1 0x40 MLOAD DUP1 SWAP2 SUB SWAP1 REVERT JUMPDEST PUSH1 0x1 ISZERO ISZERO PUSH1 0x1 PUSH1 0x14 SWAP1 SLOAD SWAP1 PUSH2 0x100 EXP SWAP1 DIV PUSH1 0xFF AND ISZERO ISZERO EQ PUSH2 0x5A9 JUMPI PUSH1 0x40 MLOAD PUSH32 0x8C379A000000000000000000000000000000000000000000000000000000000 DUP2 MSTORE PUSH1 0x4 ADD PUSH2 0x5A0 SWAP1 PUSH2 0x14D8 JUMP JUMPDEST PUSH1 0x40 MLOAD DUP1 SWAP2 SUB SWAP1 REVERT JUMPDEST PUSH0 PUSH2 0x5B6 DUP6 DUP6 DUP6 DUP6 PUSH2 0xF37 JUMP JUMPDEST SWAP1 POP PUSH1 0x40 MLOAD PUSH1 0x20 ADD PUSH2 0x5C7 SWAP1 PUSH2 0x17DA JUMP JUMPDEST PUSH1 0x40 MLOAD PUSH1 0x20 DUP2 DUP4 SUB SUB DUP2 MSTORE SWAP1 PUSH1 0x40 MSTORE DUP1 MLOAD SWAP1 PUSH1 0x20 ADD KECCAK256 DUP7 PUSH1 0x40 MLOAD PUSH1 0x20 ADD PUSH2 0x5EE SWAP2 SWAP1 PUSH2 0x158E JUMP JUMPDEST PUSH1 0x40 MLOAD PUSH1 0x20 DUP2 DUP4 SUB SUB DUP2 MSTORE SWAP1 PUSH1 0x40 MSTORE DUP1 MLOAD SWAP1 PUSH1 0x20 ADD KECCAK256 EQ DUP1 ISZERO PUSH2 0x65D JUMPI POP PUSH1 0x1 PUSH0 SWAP1 SLOAD SWAP1 PUSH2 0x100 EXP SWAP1 DIV PUSH20 0xFFFFFFFFFFFFFFFFFFFFFFFFFFFFFFFFFFFFFFFF AND PUSH20 0xFFFFFFFFFFFFFFFFFFFFFFFFFFFFFFFFFFFFFFFF AND DUP2 PUSH20 0xFFFFFFFFFFFFFFFFFFFFFFFFFFFFFFFFFFFFFFFF AND EQ JUMPDEST ISZERO PUSH2 0x6CF JUMPI PUSH0 PUSH1 0x1 PUSH1 0x14 PUSH2 0x100 EXP DUP2 SLOAD DUP2 PUSH1 0xFF MUL NOT AND SWAP1 DUP4 ISZERO ISZERO MUL OR SWAP1 SSTORE POP CALLER PUSH20 0xFFFFFFFFFFFFFFFFFFFFFFFFFFFFFFFFFFFFFFFF AND PUSH32 0x5E891764DD1799052B9B6EA4A170CCC96522D523DDB1326512A705CE058158F2 TIMESTAMP PUSH1 0x40 MLOAD PUSH2 0x6C2 SWAP2 SWAP1 PUSH2 0x185E JUMP JUMPDEST PUSH1 0x40 MLOAD DUP1 SWAP2 SUB SWAP1 LOG2 PUSH2 0x71E JUMP JUMPDEST CALLER PUSH20 0xFFFFFFFFFFFFFFFFFFFFFFFFFFFFFFFFFFFFFFFF AND PUSH32 0x318CBF99389F11034E0C03354A3175F9CBC56C6916F655347180E28990918AD5 TIMESTAMP PUSH1 0x40 MLOAD PUSH2 0x715 SWAP2 SWAP1 PUSH2 0x1920 JUMP JUMPDEST PUSH1 0x40 MLOAD DUP1 SWAP2 SUB SWAP1 LOG2 JUMPDEST POP POP POP POP POP POP JUMP JUMPDEST PUSH1 0x1 PUSH0 SWAP1 SLOAD SWAP1 PUSH2 0x100 EXP SWAP1 DIV PUSH20 0xFFFFFFFFFFFFFFFFFFFFFFFFFFFFFFFFFFFFFFFF AND DUP2 JUMP JUMPDEST PUSH1 0x4 DUP1 SLOAD PUSH2 0x758 SWAP1 PUSH2 0x13D0 JUMP JUMPDEST DUP1 PUSH1 0x1F ADD PUSH1 0x20 DUP1 SWAP2 DIV MUL PUSH1 0x20 ADD PUSH1 0x40 MLOAD SWAP1 DUP2 ADD PUSH1 0x40 MSTORE DUP1 SWAP3 SWAP2 SWAP1 DUP2 DUP2 MSTORE PUSH1 0x20 ADD DUP3 DUP1 SLOAD PUSH2 0x784 SWAP1 PUSH2 0x13D0 JUMP JUMPDEST DUP1 ISZERO PUSH2 0x7CF JUMPI DUP1 PUSH1 0x1F LT PUSH2 0x7A6 JUMPI PUSH2 0x100 DUP1 DUP4 SLOAD DIV MUL DUP4 MSTORE SWAP2 PUSH1 0x20 ADD SWAP2 PUSH2 0x7CF JUMP JUMPDEST DUP3 ADD SWAP2 SWAP1 PUSH0 MSTORE PUSH1 0x20 PUSH0 KECCAK256 SWAP1 JUMPDEST DUP2 SLOAD DUP2 MSTORE SWAP1 PUSH1 0x1 ADD SWAP1 PUSH1 0x20 ADD DUP1 DUP4 GT PUSH2 0x7B2 JUMPI DUP3 SWAP1 SUB PUSH1 0x1F AND DUP3 ADD SWAP2 JUMPDEST POP POP POP POP POP DUP2 JUMP JUMPDEST PUSH1 0x1 PUSH0 SWAP1 SLOAD SWAP1 PUSH2 0x100 EXP SWAP1 DIV PUSH20 0xFFFFFFFFFFFFFFFFFFFFFFFFFFFFFFFFFFFFFFFF AND PUSH20 0xFFFFFFFFFFFFFFFFFFFFFFFFFFFFFFFFFFFFFFFF AND CALLER PUSH20 0xFFFFFFFFFFFFFFFFFFFFFFFFFFFFFFFFFFFFFFFF AND EQ PUSH2 0x866 JUMPI PUSH1 0x40 MLOAD PUSH32 0x8C379A000000000000000000000000000000000000000000000000000000000 DUP2 MSTORE PUSH1 0x4 ADD PUSH2 0x85D SWAP1 PUSH2 0x1470 JUMP JUMPDEST PUSH1 0x40 MLOAD DUP1 SWAP2 SUB SWAP1 REVERT JUMPDEST PUSH0 PUSH2 0x873 DUP6 DUP6 DUP6 DUP6 PUSH2 0xF37 JUMP JUMPDEST SWAP1 POP PUSH1 0x40 MLOAD PUSH1 0x20 ADD PUSH2 0x884 SWAP1 PUSH2 0x1996 JUMP JUMPDEST PUSH1 0x40 MLOAD PUSH1 0x20 DUP2 DUP4 SUB SUB DUP2 MSTORE SWAP1 PUSH1 0x40 MSTORE DUP1 MLOAD SWAP1 PUSH1 0x20 ADD KECCAK256 DUP7 PUSH1 0x40 MLOAD PUSH1 0x20 ADD PUSH2 0x8AB SWAP2 SWAP1 PUSH2 0x158E JUMP JUMPDEST PUSH1 0x40 MLOAD PUSH1 0x20 DUP2 DUP4 SUB SUB DUP2 MSTORE SWAP1 PUSH1 0x40 MSTORE DUP1 MLOAD SWAP1 PUSH1 0x20 ADD KECCAK256 EQ DUP1 ISZERO PUSH2 0x91A JUMPI POP PUSH1 0x1 PUSH0 SWAP1 SLOAD SWAP1 PUSH2 0x100 EXP SWAP1 DIV PUSH20 0xFFFFFFFFFFFFFFFFFFFFFFFFFFFFFFFFFFFFFFFF AND PUSH20 0xFFFFFFFFFFFFFFFFFFFFFFFFFFFFFFFFFFFFFFFF AND DUP2 PUSH20 0xFFFFFFFFFFFFFFFFFFFFFFFFFFFFFFFFFFFFFFFF AND EQ JUMPDEST ISZERO PUSH2 0x98C JUMPI PUSH1 0x1 DUP1 PUSH1 0x14 PUSH2 0x100 EXP DUP2 SLOAD DUP2 PUSH1 0xFF MUL NOT AND SWAP1 DUP4 ISZERO ISZERO MUL OR SWAP1 SSTORE POP CALLER PUSH20 0xFFFFFFFFFFFFFFFFFFFFFFFFFFFFFFFFFFFFFFFF AND PUSH32 0xE04A00AE09FE9DD55704FF5362BC53A35E0E9D7866A77B17BD4A986AF193E118 TIMESTAMP PUSH1 0x40 MLOAD PUSH2 0x97F SWAP2 SWAP1 PUSH2 0x1A1A JUMP JUMPDEST PUSH1 0x40 MLOAD DUP1 SWAP2 SUB SWAP1 LOG2 PUSH2 0x9DB JUMP JUMPDEST CALLER PUSH20 0xFFFFFFFFFFFFFFFFFFFFFFFFFFFFFFFFFFFFFFFF AND PUSH32 0xCC6A2CDA280D7AD4A74B247795415039BCA72B21BB87BFC2A6CCD5383030CCB3 TIMESTAMP PUSH1 0x40 MLOAD PUSH2 0x9D2 SWAP2 SWAP1 PUSH2 0x1ADC JUMP JUMPDEST PUSH1 0x40 MLOAD DUP1 SWAP2 SUB SWAP1 LOG2 JUMPDEST POP POP POP POP POP POP JUMP JUMPDEST PUSH0 DUP1 SLOAD SWAP1 PUSH2 0x100 EXP SWAP1 DIV PUSH20 0xFFFFFFFFFFFFFFFFFFFFFFFFFFFFFFFFFFFFFFFF AND PUSH20 0xFFFFFFFFFFFFFFFFFFFFFFFFFFFFFFFFFFFFFFFF AND CALLER PUSH20 0xFFFFFFFFFFFFFFFFFFFFFFFFFFFFFFFFFFFFFFFF AND EQ PUSH2 0xA70 JUMPI PUSH1 0x40 MLOAD PUSH32 0x8C379A000000000000000000000000000000000000000000000000000000000 DUP2 MSTORE PUSH1 0x4 ADD PUSH2 0xA67 SWAP1 PUSH2 0x1B78 JUMP JUMPDEST PUSH1 0x40 MLOAD DUP1 SWAP2 SUB SWAP1 REVERT JUMPDEST PUSH1 0x1 ISZERO ISZERO PUSH1 0x1 PUSH1 0x14 SWAP1 SLOAD SWAP1 PUSH2 0x100 EXP SWAP1 DIV PUSH1 0xFF AND ISZERO ISZERO EQ PUSH2 0xAC6 JUMPI PUSH1 0x40 MLOAD PUSH32 0x8C379A000000000000000000000000000000000000000000000000000000000 DUP2 MSTORE PUSH1 0x4 ADD PUSH2 0xABD SWAP1 PUSH2 0x14D8 JUMP JUMPDEST PUSH1 0x40 MLOAD DUP1 SWAP2 SUB SWAP1 REVERT JUMPDEST PUSH0 PUSH2 0xAD3 DUP6 DUP6 DUP6 DUP6 PUSH2 0xF37 JUMP JUMPDEST SWAP1 POP PUSH1 0x40 MLOAD PUSH1 0x20 ADD PUSH2 0xAE4 SWAP1 PUSH2 0x1BE0 JUMP JUMPDEST PUSH1 0x40 MLOAD PUSH1 0x20 DUP2 DUP4 SUB SUB DUP2 MSTORE SWAP1 PUSH1 0x40 MSTORE DUP1 MLOAD SWAP1 PUSH1 0x20 ADD KECCAK256 DUP8 PUSH1 0x40 MLOAD PUSH1 0x20 ADD PUSH2 0xB0B SWAP2 SWAP1 PUSH2 0x158E JUMP JUMPDEST PUSH1 0x40 MLOAD PUSH1 0x20 DUP2 DUP4 SUB SUB DUP2 MSTORE SWAP1 PUSH1 0x40 MSTORE DUP1 MLOAD SWAP1 PUSH1 0x20 ADD KECCAK256 EQ DUP1 ISZERO PUSH2 0xB78 JUMPI POP PUSH0 DUP1 SLOAD SWAP1 PUSH2 0x100 EXP SWAP1 DIV PUSH20 0xFFFFFFFFFFFFFFFFFFFFFFFFFFFFFFFFFFFFFFFF AND PUSH20 0xFFFFFFFFFFFFFFFFFFFFFFFFFFFFFFFFFFFFFFFF AND DUP2 PUSH20 0xFFFFFFFFFFFFFFFFFFFFFFFFFFFFFFFFFFFFFFFF AND EQ JUMPDEST ISZERO PUSH2 0xBD2 JUMPI CALLER PUSH20 0xFFFFFFFFFFFFFFFFFFFFFFFFFFFFFFFFFFFFFFFF AND PUSH32 0xC8ECB0E7C39BCDC3E9147C665B9C74DF17A85AA88E723C9290B8405BBB19EB31 DUP8 TIMESTAMP PUSH1 0x40 MLOAD PUSH2 0xBC5 SWAP3 SWAP2 SWAP1 PUSH2 0x1CB0 JUMP JUMPDEST PUSH1 0x40 MLOAD DUP1 SWAP2 SUB SWAP1 LOG2 PUSH2 0xC23 JUMP JUMPDEST CALLER PUSH20 0xFFFFFFFFFFFFFFFFFFFFFFFFFFFFFFFFFFFFFFFF AND PUSH32 0x474D541A26BD35A8ECFD0DE88BE921A3F5439D1F3C22BE5BDAE62A6806BE75B8 DUP8 TIMESTAMP PUSH1 0x40 MLOAD PUSH2 0xC1A SWAP3 SWAP2 SWAP1 PUSH2 0x1D87 JUMP JUMPDEST PUSH1 0x40 MLOAD DUP1 SWAP2 SUB SWAP1 LOG2 JUMPDEST POP POP POP POP POP POP POP JUMP JUMPDEST PUSH0 DUP1 SLOAD SWAP1 PUSH2 0x100 EXP SWAP1 DIV PUSH20 0xFFFFFFFFFFFFFFFFFFFFFFFFFFFFFFFFFFFFFFFF AND DUP2 JUMP JUMPDEST PUSH1 0x1 PUSH1 0x14 SWAP1 SLOAD SWAP1 PUSH2 0x100 EXP SWAP1 DIV PUSH1 0xFF AND DUP2 JUMP JUMPDEST PUSH1 0x2 DUP1 SLOAD PUSH2 0xC6F SWAP1 PUSH2 0x13D0 JUMP JUMPDEST DUP1 PUSH1 0x1F ADD PUSH1 0x20 DUP1 SWAP2 DIV MUL PUSH1 0x20 ADD PUSH1 0x40 MLOAD SWAP1 DUP2 ADD PUSH1 0x40 MSTORE DUP1 SWAP3 SWAP2 SWAP1 DUP2 DUP2 MSTORE PUSH1 0x20 ADD DUP3 DUP1 SLOAD PUSH2 0xC9B SWAP1 PUSH2 0x13D0 JUMP JUMPDEST DUP1 ISZERO PUSH2 0xCE6 JUMPI DUP1 PUSH1 0x1F LT PUSH2 0xCBD JUMPI PUSH2 0x100 DUP1 DUP4 SLOAD DIV MUL DUP4 MSTORE SWAP2 PUSH1 0x20 ADD SWAP2 PUSH2 0xCE6 JUMP JUMPDEST DUP3 ADD SWAP2 SWAP1 PUSH0 MSTORE PUSH1 0x20 PUSH0 KECCAK256 SWAP1 JUMPDEST DUP2 SLOAD DUP2 MSTORE SWAP1 PUSH1 0x1 ADD SWAP1 PUSH1 0x20 ADD DUP1 DUP4 GT PUSH2 0xCC9 JUMPI DUP3 SWAP1 SUB PUSH1 0x1F AND DUP3 ADD SWAP2 JUMPDEST POP POP POP POP POP DUP2 JUMP JUMPDEST PUSH0 DUP1 SLOAD SWAP1 PUSH2 0x100 EXP SWAP1 DIV PUSH20 0xFFFFFFFFFFFFFFFFFFFFFFFFFFFFFFFFFFFFFFFF AND PUSH20 0xFFFFFFFFFFFFFFFFFFFFFFFFFFFFFFFFFFFFFFFF AND CALLER PUSH20 0xFFFFFFFFFFFFFFFFFFFFFFFFFFFFFFFFFFFFFFFF AND EQ PUSH2 0xD7B JUMPI PUSH1 0x40 MLOAD PUSH32 0x8C379A000000000000000000000000000000000000000000000000000000000 DUP2 MSTORE PUSH1 0x4 ADD PUSH2 0xD72 SWAP1 PUSH2 0x1B78 JUMP JUMPDEST PUSH1 0x40 MLOAD DUP1 SWAP2 SUB SWAP1 REVERT JUMPDEST PUSH1 0x1 ISZERO ISZERO PUSH1 0x1 PUSH1 0x14 SWAP1 SLOAD SWAP1 PUSH2 0x100 EXP SWAP1 DIV PUSH1 0xFF AND ISZERO ISZERO EQ PUSH2 0xDD1 JUMPI PUSH1 0x40 MLOAD PUSH32 0x8C379A000000000000000000000000000000000000000000000000000000000 DUP2 MSTORE PUSH1 0x4 ADD PUSH2 0xDC8 SWAP1 PUSH2 0x14D8 JUMP JUMPDEST PUSH1 0x40 MLOAD DUP1 SWAP2 SUB SWAP1 REVERT JUMPDEST PUSH0 PUSH2 0xDDE DUP6 DUP6 DUP6 DUP6 PUSH2 0xF37 JUMP JUMPDEST SWAP1 POP PUSH1 0x40 MLOAD PUSH1 0x20 ADD PUSH2 0xDEF SWAP1 PUSH2 0x1E12 JUMP JUMPDEST PUSH1 0x40 MLOAD PUSH1 0x20 DUP2 DUP4 SUB SUB DUP2 MSTORE SWAP1 PUSH1 0x40 MSTORE DUP1 MLOAD SWAP1 PUSH1 0x20 ADD KECCAK256 DUP8 PUSH1 0x40 MLOAD PUSH1 0x20 ADD PUSH2 0xE16 SWAP2 SWAP1 PUSH2 0x158E JUMP JUMPDEST PUSH1 0x40 MLOAD PUSH1 0x20 DUP2 DUP4 SUB SUB DUP2 MSTORE SWAP1 PUSH1 0x40 MSTORE DUP1 MLOAD SWAP1 PUSH1 0x20 ADD KECCAK256 EQ DUP1 ISZERO PUSH2 0xE83 JUMPI POP PUSH0 DUP1 SLOAD SWAP1 PUSH2 0x100 EXP SWAP1 DIV PUSH20 0xFFFFFFFFFFFFFFFFFFFFFFFFFFFFFFFFFFFFFFFF AND PUSH20 0xFFFFFFFFFFFFFFFFFFFFFFFFFFFFFFFFFFFFFFFF AND DUP2 PUSH20 0xFFFFFFFFFFFFFFFFFFFFFFFFFFFFFFFFFFFFFFFF AND EQ JUMPDEST ISZERO PUSH2 0xEDD JUMPI CALLER PUSH20 0xFFFFFFFFFFFFFFFFFFFFFFFFFFFFFFFFFFFFFFFF AND PUSH32 0x78FFE431AB1B58376E244B8074C9872BE0BB8D5E180D00D6B9DBEB870DA6966B DUP8 TIMESTAMP PUSH1 0x40 MLOAD PUSH2 0xED0 SWAP3 SWAP2 SWAP1 PUSH2 0x1EE2 JUMP JUMPDEST PUSH1 0x40 MLOAD DUP1 SWAP2 SUB SWAP1 LOG2 PUSH2 0xF2E JUMP JUMPDEST CALLER PUSH20 0xFFFFFFFFFFFFFFFFFFFFFFFFFFFFFFFFFFFFFFFF AND PUSH32 0xAD0E198AF6759091103DD141A4D4ADD5AB1954936C276A9A62D3FF13E17C8E41 DUP8 TIMESTAMP PUSH1 0x40 MLOAD PUSH2 0xF25 SWAP3 SWAP2 SWAP1 PUSH2 0x1FB9 JUMP JUMPDEST PUSH1 0x40 MLOAD DUP1 SWAP2 SUB SWAP1 LOG2 JUMPDEST POP POP POP POP POP POP POP JUMP JUMPDEST PUSH0 PUSH1 0x1 DUP6 DUP6 DUP6 DUP6 PUSH1 0x40 MLOAD PUSH0 DUP2 MSTORE PUSH1 0x20 ADD PUSH1 0x40 MSTORE PUSH1 0x40 MLOAD PUSH2 0xF5A SWAP5 SWAP4 SWAP3 SWAP2 SWAP1 PUSH2 0x2018 JUMP JUMPDEST PUSH1 0x20 PUSH1 0x40 MLOAD PUSH1 0x20 DUP2 SUB SWAP1 DUP1 DUP5 SUB SWAP1 DUP6 GAS STATICCALL ISZERO DUP1 ISZERO PUSH2 0xF7A JUMPI RETURNDATASIZE PUSH0 DUP1 RETURNDATACOPY RETURNDATASIZE PUSH0 REVERT JUMPDEST POP POP POP PUSH1 0x20 PUSH1 0x40 MLOAD SUB MLOAD SWAP1 POP SWAP5 SWAP4 POP POP POP POP JUMP JUMPDEST PUSH0 DUP2 MLOAD SWAP1 POP SWAP2 SWAP1 POP JUMP JUMPDEST PUSH0 DUP3 DUP3 MSTORE PUSH1 0x20 DUP3 ADD SWAP1 POP SWAP3 SWAP2 POP POP JUMP JUMPDEST DUP3 DUP2 DUP4 MCOPY PUSH0 DUP4 DUP4 ADD MSTORE POP POP POP JUMP JUMPDEST PUSH0 PUSH1 0x1F NOT PUSH1 0x1F DUP4 ADD AND SWAP1 POP SWAP2 SWAP1 POP JUMP JUMPDEST PUSH0 PUSH2 0xFD0 DUP3 PUSH2 0xF8E JUMP JUMPDEST PUSH2 0xFDA DUP2 DUP6 PUSH2 0xF98 JUMP JUMPDEST SWAP4 POP PUSH2 0xFEA DUP2 DUP6 PUSH1 0x20 DUP7 ADD PUSH2 0xFA8 JUMP JUMPDEST PUSH2 0xFF3 DUP2 PUSH2 0xFB6 JUMP JUMPDEST DUP5 ADD SWAP2 POP POP SWAP3 SWAP2 POP POP JUMP JUMPDEST PUSH0 PUSH1 0x20 DUP3 ADD SWAP1 POP DUP2 DUP2 SUB PUSH0 DUP4 ADD MSTORE PUSH2 0x1016 DUP2 DUP5 PUSH2 0xFC6 JUMP JUMPDEST SWAP1 POP SWAP3 SWAP2 POP POP JUMP JUMPDEST PUSH0 PUSH1 0x40 MLOAD SWAP1 POP SWAP1 JUMP JUMPDEST PUSH0 DUP1 REVERT JUMPDEST PUSH0 DUP1 REVERT JUMPDEST PUSH0 DUP1 REVERT JUMPDEST PUSH0 DUP1 REVERT JUMPDEST PUSH32 0x4E487B7100000000000000000000000000000000000000000000000000000000 PUSH0 MSTORE PUSH1 0x41 PUSH1 0x4 MSTORE PUSH1 0x24 PUSH0 REVERT JUMPDEST PUSH2 0x106D DUP3 PUSH2 0xFB6 JUMP JUMPDEST DUP2 ADD DUP2 DUP2 LT PUSH8 0xFFFFFFFFFFFFFFFF DUP3 GT OR ISZERO PUSH2 0x108C JUMPI PUSH2 0x108B PUSH2 0x1037 JUMP JUMPDEST JUMPDEST DUP1 PUSH1 0x40 MSTORE POP POP POP JUMP JUMPDEST PUSH0 PUSH2 0x109E PUSH2 0x101E JUMP JUMPDEST SWAP1 POP PUSH2 0x10AA DUP3 DUP3 PUSH2 0x1064 JUMP JUMPDEST SWAP2 SWAP1 POP JUMP JUMPDEST PUSH0 PUSH8 0xFFFFFFFFFFFFFFFF DUP3 GT ISZERO PUSH2 0x10C9 JUMPI PUSH2 0x10C8 PUSH2 0x1037 JUMP JUMPDEST JUMPDEST PUSH2 0x10D2 DUP3 PUSH2 0xFB6 JUMP JUMPDEST SWAP1 POP PUSH1 0x20 DUP2 ADD SWAP1 POP SWAP2 SWAP1 POP JUMP JUMPDEST DUP3 DUP2 DUP4 CALLDATACOPY PUSH0 DUP4 DUP4 ADD MSTORE POP POP POP JUMP JUMPDEST PUSH0 PUSH2 0x10FF PUSH2 0x10FA DUP5 PUSH2 0x10AF JUMP JUMPDEST PUSH2 0x1095 JUMP JUMPDEST SWAP1 POP DUP3 DUP2 MSTORE PUSH1 0x20 DUP2 ADD DUP5 DUP5 DUP5 ADD GT ISZERO PUSH2 0x111B JUMPI PUSH2 0x111A PUSH2 0x1033 JUMP JUMPDEST JUMPDEST PUSH2 0x1126 DUP5 DUP3 DUP6 PUSH2 0x10DF JUMP JUMPDEST POP SWAP4 SWAP3 POP POP POP JUMP JUMPDEST PUSH0 DUP3 PUSH1 0x1F DUP4 ADD SLT PUSH2 0x1142 JUMPI PUSH2 0x1141 PUSH2 0x102F JUMP JUMPDEST JUMPDEST DUP2 CALLDATALOAD PUSH2 0x1152 DUP5 DUP3 PUSH1 0x20 DUP7 ADD PUSH2 0x10ED JUMP JUMPDEST SWAP2 POP POP SWAP3 SWAP2 POP POP JUMP JUMPDEST PUSH0 DUP2 SWAP1 POP SWAP2 SWAP1 POP JUMP JUMPDEST PUSH2 0x116D DUP2 PUSH2 0x115B JUMP JUMPDEST DUP2 EQ PUSH2 0x1177 JUMPI PUSH0 DUP1 REVERT JUMPDEST POP JUMP JUMPDEST PUSH0 DUP2 CALLDATALOAD SWAP1 POP PUSH2 0x1188 DUP2 PUSH2 0x1164 JUMP JUMPDEST SWAP3 SWAP2 POP POP JUMP JUMPDEST PUSH0 PUSH1 0xFF DUP3 AND SWAP1 POP SWAP2 SWAP1 POP JUMP JUMPDEST PUSH2 0x11A3 DUP2 PUSH2 0x118E JUMP JUMPDEST DUP2 EQ PUSH2 0x11AD JUMPI PUSH0 DUP1 REVERT JUMPDEST POP JUMP JUMPDEST PUSH0 DUP2 CALLDATALOAD SWAP1 POP PUSH2 0x11BE DUP2 PUSH2 0x119A JUMP JUMPDEST SWAP3 SWAP2 POP POP JUMP JUMPDEST PUSH0 DUP1 PUSH0 DUP1 PUSH0 DUP1 PUSH1 0xC0 DUP8 DUP10 SUB SLT ISZERO PUSH2 0x11DE JUMPI PUSH2 0x11DD PUSH2 0x1027 JUMP JUMPDEST JUMPDEST PUSH0 DUP8 ADD CALLDATALOAD PUSH8 0xFFFFFFFFFFFFFFFF DUP2 GT ISZERO PUSH2 0x11FB JUMPI PUSH2 0x11FA PUSH2 0x102B JUMP JUMPDEST JUMPDEST PUSH2 0x1207 DUP10 DUP3 DUP11 ADD PUSH2 0x112E JUMP JUMPDEST SWAP7 POP POP PUSH1 0x20 DUP8 ADD CALLDATALOAD PUSH8 0xFFFFFFFFFFFFFFFF DUP2 GT ISZERO PUSH2 0x1228 JUMPI PUSH2 0x1227 PUSH2 0x102B JUMP JUMPDEST JUMPDEST PUSH2 0x1234 DUP10 DUP3 DUP11 ADD PUSH2 0x112E JUMP JUMPDEST SWAP6 POP POP PUSH1 0x40 PUSH2 0x1245 DUP10 DUP3 DUP11 ADD PUSH2 0x117A JUMP JUMPDEST SWAP5 POP POP PUSH1 0x60 PUSH2 0x1256 DUP10 DUP3 DUP11 ADD PUSH2 0x11B0 JUMP JUMPDEST SWAP4 POP POP PUSH1 0x80 PUSH2 0x1267 DUP10 DUP3 DUP11 ADD PUSH2 0x117A JUMP JUMPDEST SWAP3 POP POP PUSH1 0xA0 PUSH2 0x1278 DUP10 DUP3 DUP11 ADD PUSH2 0x117A JUMP JUMPDEST SWAP2 POP POP SWAP3 SWAP6 POP SWAP3 SWAP6 POP SWAP3 SWAP6 JUMP JUMPDEST PUSH0 DUP1 PUSH0 DUP1 PUSH0 PUSH1 0xA0 DUP7 DUP9 SUB SLT ISZERO PUSH2 0x129E JUMPI PUSH2 0x129D PUSH2 0x1027 JUMP JUMPDEST JUMPDEST PUSH0 DUP7 ADD CALLDATALOAD PUSH8 0xFFFFFFFFFFFFFFFF DUP2 GT ISZERO PUSH2 0x12BB JUMPI PUSH2 0x12BA PUSH2 0x102B JUMP JUMPDEST JUMPDEST PUSH2 0x12C7 DUP9 DUP3 DUP10 ADD PUSH2 0x112E JUMP JUMPDEST SWAP6 POP POP PUSH1 0x20 PUSH2 0x12D8 DUP9 DUP3 DUP10 ADD PUSH2 0x117A JUMP JUMPDEST SWAP5 POP POP PUSH1 0x40 PUSH2 0x12E9 DUP9 DUP3 DUP10 ADD PUSH2 0x11B0 JUMP JUMPDEST SWAP4 POP POP PUSH1 0x60 PUSH2 0x12FA DUP9 DUP3 DUP10 ADD PUSH2 0x117A JUMP JUMPDEST SWAP3 POP POP PUSH1 0x80 PUSH2 0x130B DUP9 DUP3 DUP10 ADD PUSH2 0x117A JUMP JUMPDEST SWAP2 POP POP SWAP3 SWAP6 POP SWAP3 SWAP6 SWAP1 SWAP4 POP JUMP JUMPDEST PUSH0 PUSH20 0xFFFFFFFFFFFFFFFFFFFFFFFFFFFFFFFFFFFFFFFF DUP3 AND SWAP1 POP SWAP2 SWAP1 POP JUMP JUMPDEST PUSH0 PUSH2 0x1341 DUP3 PUSH2 0x1318 JUMP JUMPDEST SWAP1 POP SWAP2 SWAP1 POP JUMP JUMPDEST PUSH2 0x1351 DUP2 PUSH2 0x1337 JUMP JUMPDEST DUP3 MSTORE POP POP JUMP JUMPDEST PUSH0 PUSH1 0x20 DUP3 ADD SWAP1 POP PUSH2 0x136A PUSH0 DUP4 ADD DUP5 PUSH2 0x1348 JUMP JUMPDEST SWAP3 SWAP2 POP POP JUMP JUMPDEST PUSH0 DUP2 ISZERO ISZERO SWAP1 POP SWAP2 SWAP1 POP JUMP JUMPDEST PUSH2 0x1384 DUP2 PUSH2 0x1370 JUMP JUMPDEST DUP3 MSTORE POP POP JUMP JUMPDEST PUSH0 PUSH1 0x20 DUP3 ADD SWAP1 POP PUSH2 0x139D PUSH0 DUP4 ADD DUP5 PUSH2 0x137B JUMP JUMPDEST SWAP3 SWAP2 POP POP JUMP JUMPDEST PUSH32 0x4E487B7100000000000000000000000000000000000000000000000000000000 PUSH0 MSTORE PUSH1 0x22 PUSH1 0x4 MSTORE PUSH1 0x24 PUSH0 REVERT JUMPDEST PUSH0 PUSH1 0x2 DUP3 DIV SWAP1 POP PUSH1 0x1 DUP3 AND DUP1 PUSH2 0x13E7 JUMPI PUSH1 0x7F DUP3 AND SWAP2 POP JUMPDEST PUSH1 0x20 DUP3 LT DUP2 SUB PUSH2 0x13FA JUMPI PUSH2 0x13F9 PUSH2 0x13A3 JUMP JUMPDEST JUMPDEST POP SWAP2 SWAP1 POP JUMP JUMPDEST PUSH32 0x4F6E6C7920746865206E6574776F726B206C65616465722070434E2063616E20 PUSH0 DUP3 ADD MSTORE PUSH32 0x646F207468617420616374696F6E000000000000000000000000000000000000 PUSH1 0x20 DUP3 ADD MSTORE POP JUMP JUMPDEST PUSH0 PUSH2 0x145A PUSH1 0x2E DUP4 PUSH2 0xF98 JUMP JUMPDEST SWAP2 POP PUSH2 0x1465 DUP3 PUSH2 0x1400 JUMP JUMPDEST PUSH1 0x40 DUP3 ADD SWAP1 POP SWAP2 SWAP1 POP JUMP JUMPDEST PUSH0 PUSH1 0x20 DUP3 ADD SWAP1 POP DUP2 DUP2 SUB PUSH0 DUP4 ADD MSTORE PUSH2 0x1487 DUP2 PUSH2 0x144E JUMP JUMPDEST SWAP1 POP SWAP2 SWAP1 POP JUMP JUMPDEST PUSH32 0x5468652070726F746F636F6C206D757374206265206163746976650000000000 PUSH0 DUP3 ADD MSTORE POP JUMP JUMPDEST PUSH0 PUSH2 0x14C2 PUSH1 0x1B DUP4 PUSH2 0xF98 JUMP JUMPDEST SWAP2 POP PUSH2 0x14CD DUP3 PUSH2 0x148E JUMP JUMPDEST PUSH1 0x20 DUP3 ADD SWAP1 POP SWAP2 SWAP1 POP JUMP JUMPDEST PUSH0 PUSH1 0x20 DUP3 ADD SWAP1 POP DUP2 DUP2 SUB PUSH0 DUP4 ADD MSTORE PUSH2 0x14EF DUP2 PUSH2 0x14B6 JUMP JUMPDEST SWAP1 POP SWAP2 SWAP1 POP JUMP JUMPDEST PUSH0 DUP2 SWAP1 POP SWAP3 SWAP2 POP POP JUMP JUMPDEST PUSH32 0x6D65737361676541636B6E6F776C656467650000000000000000000000000000 PUSH0 DUP3 ADD MSTORE POP JUMP JUMPDEST PUSH0 PUSH2 0x1534 PUSH1 0x12 DUP4 PUSH2 0x14F6 JUMP JUMPDEST SWAP2 POP PUSH2 0x153F DUP3 PUSH2 0x1500 JUMP JUMPDEST PUSH1 0x12 DUP3 ADD SWAP1 POP SWAP2 SWAP1 POP JUMP JUMPDEST PUSH0 PUSH2 0x1554 DUP3 PUSH2 0x1528 JUMP JUMPDEST SWAP2 POP DUP2 SWAP1 POP SWAP2 SWAP1 POP JUMP JUMPDEST PUSH0 PUSH2 0x1568 DUP3 PUSH2 0xF8E JUMP JUMPDEST PUSH2 0x1572 DUP2 DUP6 PUSH2 0x14F6 JUMP JUMPDEST SWAP4 POP PUSH2 0x1582 DUP2 DUP6 PUSH1 0x20 DUP7 ADD PUSH2 0xFA8 JUMP JUMPDEST DUP1 DUP5 ADD SWAP2 POP POP SWAP3 SWAP2 POP POP JUMP JUMPDEST PUSH0 PUSH2 0x1599 DUP3 DUP5 PUSH2 0x155E JUMP JUMPDEST SWAP2 POP DUP2 SWAP1 POP SWAP3 SWAP2 POP POP JUMP JUMPDEST PUSH32 0x41636B6E6F776C656467654D657373616765436F6D6D6974746564413A205468 PUSH0 DUP3 ADD MSTORE PUSH32 0x65207369676E6572206F662074686973207472616E73616374696F6E20726571 PUSH1 0x20 DUP3 ADD MSTORE PUSH32 0x7565737473207472616E736D697474696E672074686520617474616368656420 PUSH1 0x40 DUP3 ADD MSTORE PUSH32 0x6D65737361676520746F2074686520726563657069656E740000000000000000 PUSH1 0x60 DUP3 ADD MSTORE POP JUMP JUMPDEST PUSH0 PUSH2 0x164A PUSH1 0x78 DUP4 PUSH2 0xF98 JUMP JUMPDEST SWAP2 POP PUSH2 0x1655 DUP3 PUSH2 0x15A4 JUMP JUMPDEST PUSH1 0x80 DUP3 ADD SWAP1 POP SWAP2 SWAP1 POP JUMP JUMPDEST PUSH0 DUP2 SWAP1 POP SWAP2 SWAP1 POP JUMP JUMPDEST PUSH2 0x1672 DUP2 PUSH2 0x1660 JUMP JUMPDEST DUP3 MSTORE POP POP JUMP JUMPDEST PUSH0 PUSH1 0x60 DUP3 ADD SWAP1 POP DUP2 DUP2 SUB PUSH0 DUP4 ADD MSTORE PUSH2 0x168F DUP2 PUSH2 0x163E JUMP JUMPDEST SWAP1 POP DUP2 DUP2 SUB PUSH1 0x20 DUP4 ADD MSTORE PUSH2 0x16A3 DUP2 DUP6 PUSH2 0xFC6 JUMP JUMPDEST SWAP1 POP PUSH2 0x16B2 PUSH1 0x40 DUP4 ADD DUP5 PUSH2 0x1669 JUMP JUMPDEST SWAP4 SWAP3 POP POP POP JUMP JUMPDEST PUSH32 0x41636B6E6F776C656467654D6573736167654572726F72413A20546865726520 PUSH0 DUP3 ADD MSTORE PUSH32 0x77617320616E206572726F72207769746820746865206D657373616765207265 PUSH1 0x20 DUP3 ADD MSTORE PUSH32 0x71756573742070726F7669646564000000000000000000000000000000000000 PUSH1 0x40 DUP3 ADD MSTORE POP JUMP JUMPDEST PUSH0 PUSH2 0x1739 PUSH1 0x4E DUP4 PUSH2 0xF98 JUMP JUMPDEST SWAP2 POP PUSH2 0x1744 DUP3 PUSH2 0x16B9 JUMP JUMPDEST PUSH1 0x60 DUP3 ADD SWAP1 POP SWAP2 SWAP1 POP JUMP JUMPDEST PUSH0 PUSH1 0x60 DUP3 ADD SWAP1 POP DUP2 DUP2 SUB PUSH0 DUP4 ADD MSTORE PUSH2 0x1766 DUP2 PUSH2 0x172D JUMP JUMPDEST SWAP1 POP DUP2 DUP2 SUB PUSH1 0x20 DUP4 ADD MSTORE PUSH2 0x177A DUP2 DUP6 PUSH2 0xFC6 JUMP JUMPDEST SWAP1 POP PUSH2 0x1789 PUSH1 0x40 DUP4 ADD DUP5 PUSH2 0x1669 JUMP JUMPDEST SWAP4 SWAP3 POP POP POP JUMP JUMPDEST PUSH32 0x6D65737361676546696E69736800000000000000000000000000000000000000 PUSH0 DUP3 ADD MSTORE POP JUMP JUMPDEST PUSH0 PUSH2 0x17C4 PUSH1 0xD DUP4 PUSH2 0x14F6 JUMP JUMPDEST SWAP2 POP PUSH2 0x17CF DUP3 PUSH2 0x1790 JUMP JUMPDEST PUSH1 0xD DUP3 ADD SWAP1 POP SWAP2 SWAP1 POP JUMP JUMPDEST PUSH0 PUSH2 0x17E4 DUP3 PUSH2 0x17B8 JUMP JUMPDEST SWAP2 POP DUP2 SWAP1 POP SWAP2 SWAP1 POP JUMP JUMPDEST PUSH32 0x50726F746F636F6C46696E6973686564413A2050726F746F636F6C2046696E69 PUSH0 DUP3 ADD MSTORE PUSH32 0x73686564205375636365737366756C6C79000000000000000000000000000000 PUSH1 0x20 DUP3 ADD MSTORE POP JUMP JUMPDEST PUSH0 PUSH2 0x1848 PUSH1 0x31 DUP4 PUSH2 0xF98 JUMP JUMPDEST SWAP2 POP PUSH2 0x1853 DUP3 PUSH2 0x17EE JUMP JUMPDEST PUSH1 0x40 DUP3 ADD SWAP1 POP SWAP2 SWAP1 POP JUMP JUMPDEST PUSH0 PUSH1 0x40 DUP3 ADD SWAP1 POP DUP2 DUP2 SUB PUSH0 DUP4 ADD MSTORE PUSH2 0x1875 DUP2 PUSH2 0x183C JUMP JUMPDEST SWAP1 POP PUSH2 0x1884 PUSH1 0x20 DUP4 ADD DUP5 PUSH2 0x1669 JUMP JUMPDEST SWAP3 SWAP2 POP POP JUMP JUMPDEST PUSH32 0x50726F746F636F6C46696E69736865644572726F72413A205468657265207761 PUSH0 DUP3 ADD MSTORE PUSH32 0x7320616E206572726F722077697468207468652066696E6973682C20636F756C PUSH1 0x20 DUP3 ADD MSTORE PUSH32 0x646E27742076616C6964617465207369676E6174757265000000000000000000 PUSH1 0x40 DUP3 ADD MSTORE POP JUMP JUMPDEST PUSH0 PUSH2 0x190A PUSH1 0x57 DUP4 PUSH2 0xF98 JUMP JUMPDEST SWAP2 POP PUSH2 0x1915 DUP3 PUSH2 0x188A JUMP JUMPDEST PUSH1 0x60 DUP3 ADD SWAP1 POP SWAP2 SWAP1 POP JUMP JUMPDEST PUSH0 PUSH1 0x40 DUP3 ADD SWAP1 POP DUP2 DUP2 SUB PUSH0 DUP4 ADD MSTORE PUSH2 0x1937 DUP2 PUSH2 0x18FE JUMP JUMPDEST SWAP1 POP PUSH2 0x1946 PUSH1 0x20 DUP4 ADD DUP5 PUSH2 0x1669 JUMP JUMPDEST SWAP3 SWAP2 POP POP JUMP JUMPDEST PUSH32 0x6D65737361676553746172740000000000000000000000000000000000000000 PUSH0 DUP3 ADD MSTORE POP JUMP JUMPDEST PUSH0 PUSH2 0x1980 PUSH1 0xC DUP4 PUSH2 0x14F6 JUMP JUMPDEST SWAP2 POP PUSH2 0x198B DUP3 PUSH2 0x194C JUMP JUMPDEST PUSH1 0xC DUP3 ADD SWAP1 POP SWAP2 SWAP1 POP JUMP JUMPDEST PUSH0 PUSH2 0x19A0 DUP3 PUSH2 0x1974 JUMP JUMPDEST SWAP2 POP DUP2 SWAP1 POP SWAP2 SWAP1 POP JUMP JUMPDEST PUSH32 0x50726F746F636F6C53746172746564413A2050726F746F636F6C205374617274 PUSH0 DUP3 ADD MSTORE PUSH32 0x6564205375636365737366756C6C790000000000000000000000000000000000 PUSH1 0x20 DUP3 ADD MSTORE POP JUMP JUMPDEST PUSH0 PUSH2 0x1A04 PUSH1 0x2F DUP4 PUSH2 0xF98 JUMP JUMPDEST SWAP2 POP PUSH2 0x1A0F DUP3 PUSH2 0x19AA JUMP JUMPDEST PUSH1 0x40 DUP3 ADD SWAP1 POP SWAP2 SWAP1 POP JUMP JUMPDEST PUSH0 PUSH1 0x40 DUP3 ADD SWAP1 POP DUP2 DUP2 SUB PUSH0 DUP4 ADD MSTORE PUSH2 0x1A31 DUP2 PUSH2 0x19F8 JUMP JUMPDEST SWAP1 POP PUSH2 0x1A40 PUSH1 0x20 DUP4 ADD DUP5 PUSH2 0x1669 JUMP JUMPDEST SWAP3 SWAP2 POP POP JUMP JUMPDEST PUSH32 0x50726F746F636F6C53746172744572726F72413A205468657265207761732061 PUSH0 DUP3 ADD MSTORE PUSH32 0x6E206572726F722077697468207468652073746172742C20636F756C646E2774 PUSH1 0x20 DUP3 ADD MSTORE PUSH32 0x2076616C6964617465207369676E617475726500000000000000000000000000 PUSH1 0x40 DUP3 ADD MSTORE POP JUMP JUMPDEST PUSH0 PUSH2 0x1AC6 PUSH1 0x53 DUP4 PUSH2 0xF98 JUMP JUMPDEST SWAP2 POP PUSH2 0x1AD1 DUP3 PUSH2 0x1A46 JUMP JUMPDEST PUSH1 0x60 DUP3 ADD SWAP1 POP SWAP2 SWAP1 POP JUMP JUMPDEST PUSH0 PUSH1 0x40 DUP3 ADD SWAP1 POP DUP2 DUP2 SUB PUSH0 DUP4 ADD MSTORE PUSH2 0x1AF3 DUP2 PUSH2 0x1ABA JUMP JUMPDEST SWAP1 POP PUSH2 0x1B02 PUSH1 0x20 DUP4 ADD DUP5 PUSH2 0x1669 JUMP JUMPDEST SWAP3 SWAP2 POP POP JUMP JUMPDEST PUSH32 0x4F6E6C792074686520636F6E74726163742063726561746F7220412063616E20 PUSH0 DUP3 ADD MSTORE PUSH32 0x646F207468617420616374696F6E000000000000000000000000000000000000 PUSH1 0x20 DUP3 ADD MSTORE POP JUMP JUMPDEST PUSH0 PUSH2 0x1B62 PUSH1 0x2E DUP4 PUSH2 0xF98 JUMP JUMPDEST SWAP2 POP PUSH2 0x1B6D DUP3 PUSH2 0x1B08 JUMP JUMPDEST PUSH1 0x40 DUP3 ADD SWAP1 POP SWAP2 SWAP1 POP JUMP JUMPDEST PUSH0 PUSH1 0x20 DUP3 ADD SWAP1 POP DUP2 DUP2 SUB PUSH0 DUP4 ADD MSTORE PUSH2 0x1B8F DUP2 PUSH2 0x1B56 JUMP JUMPDEST SWAP1 POP SWAP2 SWAP1 POP JUMP JUMPDEST PUSH32 0x6D657373616765476574496E666F000000000000000000000000000000000000 PUSH0 DUP3 ADD MSTORE POP JUMP JUMPDEST PUSH0 PUSH2 0x1BCA PUSH1 0xE DUP4 PUSH2 0x14F6 JUMP JUMPDEST SWAP2 POP PUSH2 0x1BD5 DUP3 PUSH2 0x1B96 JUMP JUMPDEST PUSH1 0xE DUP3 ADD SWAP1 POP SWAP2 SWAP1 POP JUMP JUMPDEST PUSH0 PUSH2 0x1BEA DUP3 PUSH2 0x1BBE JUMP JUMPDEST SWAP2 POP DUP2 SWAP1 POP SWAP2 SWAP1 POP JUMP JUMPDEST PUSH32 0x5472616E736665724D657373616765436F6D6D6974746564413A205468652073 PUSH0 DUP3 ADD MSTORE PUSH32 0x69676E6572206F662074686973207472616E73616374696F6E20726571756573 PUSH1 0x20 DUP3 ADD MSTORE PUSH32 0x7473207472616E736D697474696E6720746865206174746163686564206D6573 PUSH1 0x40 DUP3 ADD MSTORE PUSH32 0x7361676520746F2074686520726563657069656E740000000000000000000000 PUSH1 0x60 DUP3 ADD MSTORE POP JUMP JUMPDEST PUSH0 PUSH2 0x1C9A PUSH1 0x75 DUP4 PUSH2 0xF98 JUMP JUMPDEST SWAP2 POP PUSH2 0x1CA5 DUP3 PUSH2 0x1BF4 JUMP JUMPDEST PUSH1 0x80 DUP3 ADD SWAP1 POP SWAP2 SWAP1 POP JUMP JUMPDEST PUSH0 PUSH1 0x60 DUP3 ADD SWAP1 POP DUP2 DUP2 SUB PUSH0 DUP4 ADD MSTORE PUSH2 0x1CC7 DUP2 PUSH2 0x1C8E JUMP JUMPDEST SWAP1 POP DUP2 DUP2 SUB PUSH1 0x20 DUP4 ADD MSTORE PUSH2 0x1CDB DUP2 DUP6 PUSH2 0xFC6 JUMP JUMPDEST SWAP1 POP PUSH2 0x1CEA PUSH1 0x40 DUP4 ADD DUP5 PUSH2 0x1669 JUMP JUMPDEST SWAP4 SWAP3 POP POP POP JUMP JUMPDEST PUSH32 0x5472616E736665724D6573736167654572726F72413A20546865726520776173 PUSH0 DUP3 ADD MSTORE PUSH32 0x20616E206572726F72207769746820746865206D657373616765207265717565 PUSH1 0x20 DUP3 ADD MSTORE PUSH32 0x73742070726F7669646564000000000000000000000000000000000000000000 PUSH1 0x40 DUP3 ADD MSTORE POP JUMP JUMPDEST PUSH0 PUSH2 0x1D71 PUSH1 0x4B DUP4 PUSH2 0xF98 JUMP JUMPDEST SWAP2 POP PUSH2 0x1D7C DUP3 PUSH2 0x1CF1 JUMP JUMPDEST PUSH1 0x60 DUP3 ADD SWAP1 POP SWAP2 SWAP1 POP JUMP JUMPDEST PUSH0 PUSH1 0x60 DUP3 ADD SWAP1 POP DUP2 DUP2 SUB PUSH0 DUP4 ADD MSTORE PUSH2 0x1D9E DUP2 PUSH2 0x1D65 JUMP JUMPDEST SWAP1 POP DUP2 DUP2 SUB PUSH1 0x20 DUP4 ADD MSTORE PUSH2 0x1DB2 DUP2 DUP6 PUSH2 0xFC6 JUMP JUMPDEST SWAP1 POP PUSH2 0x1DC1 PUSH1 0x40 DUP4 ADD DUP5 PUSH2 0x1669 JUMP JUMPDEST SWAP4 SWAP3 POP POP POP JUMP JUMPDEST PUSH32 0x6D657373616765456E644D657373616765000000000000000000000000000000 PUSH0 DUP3 ADD MSTORE POP JUMP JUMPDEST PUSH0 PUSH2 0x1DFC PUSH1 0x11 DUP4 PUSH2 0x14F6 JUMP JUMPDEST SWAP2 POP PUSH2 0x1E07 DUP3 PUSH2 0x1DC8 JUMP JUMPDEST PUSH1 0x11 DUP3 ADD SWAP1 POP SWAP2 SWAP1 POP JUMP JUMPDEST PUSH0 PUSH2 0x1E1C DUP3 PUSH2 0x1DF0 JUMP JUMPDEST SWAP2 POP DUP2 SWAP1 POP SWAP2 SWAP1 POP JUMP JUMPDEST PUSH32 0x456E644D657373616765436F6D6D6974746564413A20546865207369676E6572 PUSH0 DUP3 ADD MSTORE PUSH32 0x206F662074686973207472616E73616374696F6E207265717565737473207472 PUSH1 0x20 DUP3 ADD MSTORE PUSH32 0x616E736D697474696E6720746865206174746163686564206D65737361676520 PUSH1 0x40 DUP3 ADD MSTORE PUSH32 0x746F2074686520726563657069656E7400000000000000000000000000000000 PUSH1 0x60 DUP3 ADD MSTORE POP JUMP JUMPDEST PUSH0 PUSH2 0x1ECC PUSH1 0x70 DUP4 PUSH2 0xF98 JUMP JUMPDEST SWAP2 POP PUSH2 0x1ED7 DUP3 PUSH2 0x1E26 JUMP JUMPDEST PUSH1 0x80 DUP3 ADD SWAP1 POP SWAP2 SWAP1 POP JUMP JUMPDEST PUSH0 PUSH1 0x60 DUP3 ADD SWAP1 POP DUP2 DUP2 SUB PUSH0 DUP4 ADD MSTORE PUSH2 0x1EF9 DUP2 PUSH2 0x1EC0 JUMP JUMPDEST SWAP1 POP DUP2 DUP2 SUB PUSH1 0x20 DUP4 ADD MSTORE PUSH2 0x1F0D DUP2 DUP6 PUSH2 0xFC6 JUMP JUMPDEST SWAP1 POP PUSH2 0x1F1C PUSH1 0x40 DUP4 ADD DUP5 PUSH2 0x1669 JUMP JUMPDEST SWAP4 SWAP3 POP POP POP JUMP JUMPDEST PUSH32 0x456E644D6573736167654572726F72413A2054686572652077617320616E2065 PUSH0 DUP3 ADD MSTORE PUSH32 0x72726F72207769746820746865206D6573736167652072657175657374207072 PUSH1 0x20 DUP3 ADD MSTORE PUSH32 0x6F76696465640000000000000000000000000000000000000000000000000000 PUSH1 0x40 DUP3 ADD MSTORE POP JUMP JUMPDEST PUSH0 PUSH2 0x1FA3 PUSH1 0x46 DUP4 PUSH2 0xF98 JUMP JUMPDEST SWAP2 POP PUSH2 0x1FAE DUP3 PUSH2 0x1F23 JUMP JUMPDEST PUSH1 0x60 DUP3 ADD SWAP1 POP SWAP2 SWAP1 POP JUMP JUMPDEST PUSH0 PUSH1 0x60 DUP3 ADD SWAP1 POP DUP2 DUP2 SUB PUSH0 DUP4 ADD MSTORE PUSH2 0x1FD0 DUP2 PUSH2 0x1F97 JUMP JUMPDEST SWAP1 POP DUP2 DUP2 SUB PUSH1 0x20 DUP4 ADD MSTORE PUSH2 0x1FE4 DUP2 DUP6 PUSH2 0xFC6 JUMP JUMPDEST SWAP1 POP PUSH2 0x1FF3 PUSH1 0x40 DUP4 ADD DUP5 PUSH2 0x1669 JUMP JUMPDEST SWAP4 SWAP3 POP POP POP JUMP JUMPDEST PUSH2 0x2003 DUP2 PUSH2 0x115B JUMP JUMPDEST DUP3 MSTORE POP POP JUMP JUMPDEST PUSH2 0x2012 DUP2 PUSH2 0x118E JUMP JUMPDEST DUP3 MSTORE POP POP JUMP JUMPDEST PUSH0 PUSH1 0x80 DUP3 ADD SWAP1 POP PUSH2 0x202B PUSH0 DUP4 ADD DUP8 PUSH2 0x1FFA JUMP JUMPDEST PUSH2 0x2038 PUSH1 0x20 DUP4 ADD DUP7 PUSH2 0x2009 JUMP JUMPDEST PUSH2 0x2045 PUSH1 0x40 DUP4 ADD DUP6 PUSH2 0x1FFA JUMP JUMPDEST PUSH2 0x2052 PUSH1 0x60 DUP4 ADD DUP5 PUSH2 0x1FFA JUMP JUMPDEST SWAP6 SWAP5 POP POP POP POP POP JUMP INVALID LOG2 PUSH5 0x6970667358 0x22 SLT KECCAK256 CALLDATASIZE LOG0 DUP16 NOT PUSH28 0x992BD915E31462733924020D3DAB273D27A698D4296D8A56CCE1464 PUSH20 0x6F6C634300081A00330000000000000000000000 "
		},
		"gasEstimates": {
			"creation": {
				"codeDepositCost": "1667400",
				"executionCost": "infinite",
				"totalCost": "infinite"
			},
			"external": {
				"acknowledgeMessage()": "infinite",
				"endMessage()": "infinite",
				"finishProtocol(string,bytes32,uint8,bytes32,bytes32)": "infinite",
				"getAcknowledge(string,string,bytes32,uint8,bytes32,bytes32)": "infinite",
				"getEndMessage(string,string,bytes32,uint8,bytes32,bytes32)": "infinite",
				"getTransferInfo(string,string,bytes32,uint8,bytes32,bytes32)": "infinite",
				"messageTransfer()": "infinite",
				"protocolActive()": "2583",
				"startProtocol(string,bytes32,uint8,bytes32,bytes32)": "infinite",
				"storedPublicKeyA()": "2549",
				"storedPublicKeypCN()": "2575"
			},
			"internal": {
				"getSigner(bytes32,uint8,bytes32,bytes32)": "infinite"
			}
		},
		"methodIdentifiers": {
			"acknowledgeMessage()": "02b301e9",
			"endMessage()": "4fe43c90",
			"finishProtocol(string,bytes32,uint8,bytes32,bytes32)": "3321c7db",
			"getAcknowledge(string,string,bytes32,uint8,bytes32,bytes32)": "162cefc3",
			"getEndMessage(string,string,bytes32,uint8,bytes32,bytes32)": "ef091333",
			"getTransferInfo(string,string,bytes32,uint8,bytes32,bytes32)": "74a378e0",
			"messageTransfer()": "b67be4e9",
			"protocolActive()": "a55c87fd",
			"startProtocol(string,bytes32,uint8,bytes32,bytes32)": "644c990a",
			"storedPublicKeyA()": "8e199374",
			"storedPublicKeypCN()": "4064911c"
		}
	},
	"abi": [
		{
			"inputs": [
				{
					"internalType": "address",
					"name": "_publicKeypCN",
					"type": "address"
				}
			],
			"stateMutability": "nonpayable",
			"type": "constructor"
		},
		{
			"anonymous": false,
			"inputs": [
				{
					"indexed": true,
					"internalType": "address",
					"name": "_starter",
					"type": "address"
				},
				{
					"indexed": false,
					"internalType": "string",
					"name": "_description",
					"type": "string"
				},
				{
					"indexed": false,
					"internalType": "string",
					"name": "_messageContent",
					"type": "string"
				},
				{
					"indexed": false,
					"internalType": "uint256",
					"name": "_timestamp",
					"type": "uint256"
				}
			],
			"name": "AcknowledgeMessageCommittedA",
			"type": "event"
		},
		{
			"anonymous": false,
			"inputs": [
				{
					"indexed": true,
					"internalType": "address",
					"name": "_starter",
					"type": "address"
				},
				{
					"indexed": false,
					"internalType": "string",
					"name": "_description",
					"type": "string"
				},
				{
					"indexed": false,
					"internalType": "string",
					"name": "_messageContent",
					"type": "string"
				},
				{
					"indexed": false,
					"internalType": "uint256",
					"name": "_timestamp",
					"type": "uint256"
				}
			],
			"name": "AcknowledgeMessageErrorA",
			"type": "event"
		},
		{
			"anonymous": false,
			"inputs": [
				{
					"indexed": true,
					"internalType": "address",
					"name": "_starter",
					"type": "address"
				},
				{
					"indexed": false,
					"internalType": "string",
					"name": "_description",
					"type": "string"
				},
				{
					"indexed": false,
					"internalType": "string",
					"name": "_messageContent",
					"type": "string"
				},
				{
					"indexed": false,
					"internalType": "uint256",
					"name": "_timestamp",
					"type": "uint256"
				}
			],
			"name": "EndMessageCommittedA",
			"type": "event"
		},
		{
			"anonymous": false,
			"inputs": [
				{
					"indexed": true,
					"internalType": "address",
					"name": "_starter",
					"type": "address"
				},
				{
					"indexed": false,
					"internalType": "string",
					"name": "_description",
					"type": "string"
				},
				{
					"indexed": false,
					"internalType": "string",
					"name": "_messageContent",
					"type": "string"
				},
				{
					"indexed": false,
					"internalType": "uint256",
					"name": "_timestamp",
					"type": "uint256"
				}
			],
			"name": "EndMessageErrorA",
			"type": "event"
		},
		{
			"anonymous": false,
			"inputs": [
				{
					"indexed": true,
					"internalType": "address",
					"name": "_starter",
					"type": "address"
				},
				{
					"indexed": false,
					"internalType": "string",
					"name": "_description",
					"type": "string"
				},
				{
					"indexed": false,
					"internalType": "uint256",
					"name": "_timestamp",
					"type": "uint256"
				}
			],
			"name": "ProtocolFinishedA",
			"type": "event"
		},
		{
			"anonymous": false,
			"inputs": [
				{
					"indexed": true,
					"internalType": "address",
					"name": "_starter",
					"type": "address"
				},
				{
					"indexed": false,
					"internalType": "string",
					"name": "_description",
					"type": "string"
				},
				{
					"indexed": false,
					"internalType": "uint256",
					"name": "_timestamp",
					"type": "uint256"
				}
			],
			"name": "ProtocolFinishedErrorA",
			"type": "event"
		},
		{
			"anonymous": false,
			"inputs": [
				{
					"indexed": true,
					"internalType": "address",
					"name": "_starter",
					"type": "address"
				},
				{
					"indexed": false,
					"internalType": "string",
					"name": "_description",
					"type": "string"
				},
				{
					"indexed": false,
					"internalType": "uint256",
					"name": "_timestamp",
					"type": "uint256"
				}
			],
			"name": "ProtocolStartErrorA",
			"type": "event"
		},
		{
			"anonymous": false,
			"inputs": [
				{
					"indexed": true,
					"internalType": "address",
					"name": "_starter",
					"type": "address"
				},
				{
					"indexed": false,
					"internalType": "string",
					"name": "_description",
					"type": "string"
				},
				{
					"indexed": false,
					"internalType": "uint256",
					"name": "_timestamp",
					"type": "uint256"
				}
			],
			"name": "ProtocolStartedA",
			"type": "event"
		},
		{
			"anonymous": false,
			"inputs": [
				{
					"indexed": true,
					"internalType": "address",
					"name": "_starter",
					"type": "address"
				},
				{
					"indexed": false,
					"internalType": "string",
					"name": "_description",
					"type": "string"
				},
				{
					"indexed": false,
					"internalType": "string",
					"name": "_messageContent",
					"type": "string"
				},
				{
					"indexed": false,
					"internalType": "uint256",
					"name": "_timestamp",
					"type": "uint256"
				}
			],
			"name": "TransferMessageCommittedA",
			"type": "event"
		},
		{
			"anonymous": false,
			"inputs": [
				{
					"indexed": true,
					"internalType": "address",
					"name": "_starter",
					"type": "address"
				},
				{
					"indexed": false,
					"internalType": "string",
					"name": "_description",
					"type": "string"
				},
				{
					"indexed": false,
					"internalType": "string",
					"name": "_messageContent",
					"type": "string"
				},
				{
					"indexed": false,
					"internalType": "uint256",
					"name": "_timestamp",
					"type": "uint256"
				}
			],
			"name": "TransferMessageErrorA",
			"type": "event"
		},
		{
			"inputs": [],
			"name": "acknowledgeMessage",
			"outputs": [
				{
					"internalType": "string",
					"name": "",
					"type": "string"
				}
			],
			"stateMutability": "view",
			"type": "function"
		},
		{
			"inputs": [],
			"name": "endMessage",
			"outputs": [
				{
					"internalType": "string",
					"name": "",
					"type": "string"
				}
			],
			"stateMutability": "view",
			"type": "function"
		},
		{
			"inputs": [
				{
					"internalType": "string",
					"name": "_messageOperation",
					"type": "string"
				},
				{
					"internalType": "bytes32",
					"name": "_messageHash",
					"type": "bytes32"
				},
				{
					"internalType": "uint8",
					"name": "_v",
					"type": "uint8"
				},
				{
					"internalType": "bytes32",
					"name": "_r",
					"type": "bytes32"
				},
				{
					"internalType": "bytes32",
					"name": "_s",
					"type": "bytes32"
				}
			],
			"name": "finishProtocol",
			"outputs": [],
			"stateMutability": "nonpayable",
			"type": "function"
		},
		{
			"inputs": [
				{
					"internalType": "string",
					"name": "_messageRequest",
					"type": "string"
				},
				{
					"internalType": "string",
					"name": "_transactionMessage",
					"type": "string"
				},
				{
					"internalType": "bytes32",
					"name": "_messageHash",
					"type": "bytes32"
				},
				{
					"internalType": "uint8",
					"name": "_v",
					"type": "uint8"
				},
				{
					"internalType": "bytes32",
					"name": "_r",
					"type": "bytes32"
				},
				{
					"internalType": "bytes32",
					"name": "_s",
					"type": "bytes32"
				}
			],
			"name": "getAcknowledge",
			"outputs": [],
			"stateMutability": "nonpayable",
			"type": "function"
		},
		{
			"inputs": [
				{
					"internalType": "string",
					"name": "_messageRequest",
					"type": "string"
				},
				{
					"internalType": "string",
					"name": "_transactionMessage",
					"type": "string"
				},
				{
					"internalType": "bytes32",
					"name": "_messageHash",
					"type": "bytes32"
				},
				{
					"internalType": "uint8",
					"name": "_v",
					"type": "uint8"
				},
				{
					"internalType": "bytes32",
					"name": "_r",
					"type": "bytes32"
				},
				{
					"internalType": "bytes32",
					"name": "_s",
					"type": "bytes32"
				}
			],
			"name": "getEndMessage",
			"outputs": [],
			"stateMutability": "nonpayable",
			"type": "function"
		},
		{
			"inputs": [
				{
					"internalType": "string",
					"name": "_messageRequest",
					"type": "string"
				},
				{
					"internalType": "string",
					"name": "_transactionMessage",
					"type": "string"
				},
				{
					"internalType": "bytes32",
					"name": "_messageHash",
					"type": "bytes32"
				},
				{
					"internalType": "uint8",
					"name": "_v",
					"type": "uint8"
				},
				{
					"internalType": "bytes32",
					"name": "_r",
					"type": "bytes32"
				},
				{
					"internalType": "bytes32",
					"name": "_s",
					"type": "bytes32"
				}
			],
			"name": "getTransferInfo",
			"outputs": [],
			"stateMutability": "nonpayable",
			"type": "function"
		},
		{
			"inputs": [],
			"name": "messageTransfer",
			"outputs": [
				{
					"internalType": "string",
					"name": "",
					"type": "string"
				}
			],
			"stateMutability": "view",
			"type": "function"
		},
		{
			"inputs": [],
			"name": "protocolActive",
			"outputs": [
				{
					"internalType": "bool",
					"name": "",
					"type": "bool"
				}
			],
			"stateMutability": "view",
			"type": "function"
		},
		{
			"inputs": [
				{
					"internalType": "string",
					"name": "_messageOperation",
					"type": "string"
				},
				{
					"internalType": "bytes32",
					"name": "_messageHash",
					"type": "bytes32"
				},
				{
					"internalType": "uint8",
					"name": "_v",
					"type": "uint8"
				},
				{
					"internalType": "bytes32",
					"name": "_r",
					"type": "bytes32"
				},
				{
					"internalType": "bytes32",
					"name": "_s",
					"type": "bytes32"
				}
			],
			"name": "startProtocol",
			"outputs": [],
			"stateMutability": "nonpayable",
			"type": "function"
		},
		{
			"inputs": [],
			"name": "storedPublicKeyA",
			"outputs": [
				{
					"internalType": "address",
					"name": "",
					"type": "address"
				}
			],
			"stateMutability": "view",
			"type": "function"
		},
		{
			"inputs": [],
			"name": "storedPublicKeypCN",
			"outputs": [
				{
					"internalType": "address",
					"name": "",
					"type": "address"
				}
			],
			"stateMutability": "view",
			"type": "function"
		}
	]
}